:1000000000800020BD0100004D130000051300001A
:100010000513000005130000051300000513000080
:100020000513000005130000051300004D13000028
:100030004D13000005130000F9280000FD29000001
:100040004D1300004D1300004D1300004D13000030
:100050004D1300004D1300004D1300004D13000020
:100060004D1300004D1300004D1300004D13000010
:100070004D1300004D1300004D1300004D13000000
:100080004D1300004D1300004D1300004D130000F0
:100090004D1300004D1300004D1300004D130000E0
:1000A0004D1300004D1300004D1300004D130000D0
:1000B0004D1300004D1300004D1300004D130000C0
:1000C0004D1300004D1300004D1300004D130000B0
:1000D0004D1300004D1300004D1300004D130000A0
:1000E0004D1300004D1300004D1300004D13000090
:1000F0004D130000552B00004D130000812C000013
:100100004D130000AD2D00004D1300004D130000F5
:100110004D1300004D1300004D1300004D1300005F
:100120004D1300004D1300004D1300004D1300004F
:100130004D1300004D1300004D1300004D1300003F
:100140004D1300004D1300004D1300004D1300002F
:100150004D1300004D1300004D1300004D1300001F
:100160004D130000E91A00004D1300004D1300006C
:100170004D1300004D1300004D1300004D130000FF
:100180004D1300004D1300004D1300004D130000EF
:100190004D1300004D1300004D1300004D130000DF
:1001A0004D1300004D1300004D1300004D130000CF
:1001B0004D1300004D1300004D130000564B4CF240
:1001C000205210B51A804DF628121A8000BF00BFC9
:1001D00001F0C0F8514B4FF010621A60504A9A601B
:1001E000504ADA60504A136813F4807304D14F49BF
:1001F0000B604FF4A85313604D4B1A78110703D5C9
:100200001A7842F008021A704A4B4B492A221A7097
:100210004A4A4B4B8B4204D252F8040F43F8040B6A
:10022000F8E7484B484900228B4202D243F8042B9E
:10023000FAE74649464A002352F8230041F82300D2
:1002400001336F2BF8D1434B434A802103F8011B44
:100250009342FBD1414B3D4A1A60414B8A221A70AE
:10026000A3F5805324225A70A0221A709A7992071B
:10027000FCD59A79D406FCD43A4A937903F00C035E
:10028000082B384BF9D103221A7140225A719A79FE
:100290009006FCD5334A9179324B4906FBD5324A58
:1002A000324911600221516020221A709A7902F0BD
:1002B0000C020C2AFAD12E4B2E4A1A602E4B2F4AD2
:1002C0001A6000225A60072243F8042C2C4AC3F813
:1002D0000C2D62B601F0D4FA144B1B68DA0705D571
:1002E000284801F0B5F8284B284A1A60284B1B789B
:1002F0005B0609D5244C254B22689A4204D121483B
:1003000001F0A6F80023236003F02CF901F028F88F
:1003100000F0F0FFFEE700BF0E20054030800440F3
:10032000823F04000100002B10D0034014D0034092
:1003300002D0074000E007401C90FF1FE84000008B
:100340002087FF1F1C90FF1FF0F8FF1F0082FF1F78
:100350000000000000E400E05FE400E008ED00E0E1
:100360000050064000400640448004400000030165
:1003700004800440C010050014E000E0FF76010096
:1003800000002020CE1AAE5D1CE00340A5C3945AA5
:1003900000F00740FFFFFFFFFFFFFFFFFFFFFFFF32
:1003A000FFFFFFFFFFFFFFFFFFFFFFFFFFFFFFFF5D
:1003B000FFFFFFFFFFFFFFFFFFFFFFFFFFFFFFFF4D
:1003C000FFFFFFFFFFFFFFFFFFFFFFFFFFFFFFFF3D
:1003D000FFFFFFFFFFFFFFFFFFFFFFFFFFFFFFFF2D
:1003E000FFFFFFFFFFFFFFFFFFFFFFFFFFFFFFFF1D
:1003F000FFFFFFFFFFFFFFFFFFFFFFFFFFFFFFFF0D
:10040000FFFFFFFFFFFFFFFFFFFFFFFFDEF9FFFF23
:1004100010B5054C237833B9044B13B10448AFF33E
:1004200000800123237010BD1C90FF1F00000000FE
:10043000EC400000084B10B51BB108490848AFF369
:1004400000800848036803B910BD074B002BFBD0A0
:10045000BDE81040184700BF000000002090FF1FBB
:10046000EC4000001C90FF1F000000002DE9F04F41
:10047000032089B001F074FA002800F0C18042889E
:100480000588AA4283466DDA604B614C1868614B5F
:10049000D3F80090604B1B680393604B1B6802937A
:1004A0005F4B1B6804935F4BD3F800C05E4B4FF06B
:1004B000000ED3F800A0CDF81CE002F108035B4465
:1004C000CDF818E0CDF814E0F046CDF804E076461B
:1004D00000284DD01F78218841EA07212180BCF1F6
:1004E000000F48D04FF2FF0C61455BD05FFA81FCF2
:1004F000BCF1F00F74D04FF6FF76C6EB010C4FF055
:100500000108BCFA8CFC4FEA5C1CC246CDF80480A2
:1005100080F0010001260132954203F10103D7DC8E
:10052000002E70D1019B13B13E4BC3F800C0B8F14F
:10053000000F02D03C4BC3F800A0059B13B1364B13
:10054000039A1A60069B13B1344B029A1A60079BF8
:1005500013B1334B049A1A60BEF1000F02D02D4B39
:10056000C3F80090584609B0BDE8F04F02F0B0B8AB
:1005700019782180CCE7B1F57F4F0BD8B9F5346FEE
:10058000C6D2029D25F819104FF0010EF144BBF8B8
:100590000050BDE74FF6FF76B1422DD04FF0010875
:1005A000C246B5E7BAF1000F15D0039E0299029634
:1005B000049E03960491029E039903964FF0010E48
:1005C0004FF00009049E0296F046CDF804E0049135
:1005D000CA46CC469CE70121079106910591EAE7BE
:1005E0000B494FF0010E4FF000090F80F046CDF897
:1005F00004E0CA46CC468EE7012101918C4687E78C
:1006000009B0BDE8F08F014B18608BE73890FF1FF1
:1006100018B2FF1F4C90FF1F3C90FF1F4490FF1F1C
:100620004090FF1F14B2FF1F4890FF1F2DE9F04FAD
:1006300000F5865395B01C4600F59D53089300F5D0
:100640009252089B0590174600F5A85210460E33AB
:1006500022461E32089300F116030B9209933A4684
:1006600001F1100306320C93DFF8BCB60A9201F5D3
:1006700035631393CDF810A0CDF80890039601953B
:10068000059F9BF800E0B7F800A09BF8B4009BF82A
:1006900068119BF81C229BF8D0320593D6448BF846
:1006A00000E0B7F868A19BF808370E9350448BF828
:1006B000B400B7F8D0A2059B9BF8849305975144EA
:1006C0008BF86811B7F838A4059C9BF838849BF820
:1006D000A0559BF854669BF8ECC452448BF81C223E
:1006E000B7F8A0A553448BF8D032B7F808A70AEBA7
:1006F00009078BF88473B4F87098C8448BF8388471
:10070000CDF81880059CB4F8D889059CC4448BF8B2
:10071000ECC4B4F840AB019CCDF81CC04FEA1E29D4
:1007200069F310440194039C4FEA9E2868F3104437
:100730000394029C4FEA1E3C6CF310440294049C08
:100740004FEA9E3C6CF310440494019C4FEA5E29EE
:1007500069F300040194039C4FEADE2868F3000467
:100760000394029CAA44A046049C55464FEA5E3C72
:100770006CF300088BF8A0554FEADE3EA4460D95B9
:10078000019DCDF808806EF3000CCDF810C0AC468A
:10079000039D4FEA102A4FEA90296AF3514CAA466A
:1007A000029DCDF804C069F3514ACDF80CA0AA46C9
:1007B000049D4FEA10384FEA903E68F3514A6EF3B9
:1007C0005145CDF808A00495059D019CB5F8A8EC0D
:1007D0004FEA502C6CF341040194039C4FEAD0295A
:1007E00069F341040394029C4FEA503868F34104D2
:1007F0000294049CC00B60F3410404940198039C90
:100800004FEA112A4FEA912C6AF39240A246029CC9
:1008100001906CF3924ACDF80CA04FEA1139A24630
:10082000049C69F3924ACDF808A04FEA9138A24699
:1008300068F3924A54460EEB060A019E8BF854A6C2
:10084000B046039E4FEAD12C6CF382060396029EBB
:10085000480A4FEA513960F3820869F38206CDF8FD
:1008600004800296C90B264661F38206039C019917
:100870004FEA122E6EF3D341A646029C0191900AD4
:100880004FEA123C60F3D34E6CF3D3444FEA9238F4
:10089000510AD00A4FEAD23CCDF80CE002944FEA5C
:1008A000523E2C46B5F8102E019DA94661F3C309AE
:1008B000CDF80490039DA946029D60F3C309CDF8CD
:1008C0000C90A946019D68F3D3466CF3C306AC4671
:1008D000039D4FEA13286EF3C3094FEA933E990A2A
:1008E00068F3145C6EF31456A846049661F314582A
:1008F0000E9ECDF80C809519039ACDF804C0D90A44
:100900002E46180B019D8BF8086761F30412C84648
:100910004FEA532C60F314580392049ACDF80880E0
:100920006CF304150195580B3D464FEA17284FEA22
:10093000972E390BDB0B029F0E96944663F3041C33
:10094000019B9BF824299BF87068CDF810C060F3D8
:10095000041768F3555302979BF8D87901931197C0
:100960009BF8BC379BF88C7AB4F878CF0F9310972C
:100970001292039A029F049CA80B4FEA55284FEA53
:10098000D5396EF3555261F355574FEAD52E690BA1
:1009900060F35554069D01982B0A68F345106EF3D9
:1009A000451261F345174FEA153E69F3451463F3A9
:1009B00096504FEA55290F9B4FEA952869F3861008
:1009C0006EF396574FEA553E63440190A90B4FEAE8
:1009D000D52C6EF3861768F396524FEAD538079DEB
:1009E0000297019F8BF8BC3761F39654290A61F393
:1009F000D7570B99019731F8029F0B910299A80ADA
:100A00006CF386124FEA153C4FEA953E4F4660F371
:100A1000D7526CF3D751E80A4FEA553C4FEAD53923
:100A200068F386144FEA5528019D03922A46039DD8
:100A3000029168F3C7120D9901922A466EF3D754BA
:100A40000D464FEA112E4FEA912860F3C712080BAA
:100A5000029903926CF3C7112246019C029169F33B
:100A6000C712049239462246029F039C6EF3186215
:100A700068F3186401923A4631444FEA953C4FEAD4
:100A8000552E4FEAD52860F318624FEAD539680B26
:100A90000394049F019D039E8BF8701868F3082649
:100AA0001446039660F308242A4602940A9D039C88
:100AB0006CF318676EF308224FEA1A2C69F30827C3
:100AC0006CF359624FEA9A2E35F802CF0497164616
:100AD00022464FEA5A296EF359620A95049F0E9DE9
:100AE00003924FEA9A3069F349260196029C129AC2
:100AF0002E464FEA952960F35967280A039D4FEA6D
:100B00001A384FEADA2E6EF3492568F359644FEA32
:100B10005A38039568F3492494440294039A019C3B
:100B20008BF824C9354660F39A6469F39A6201949C
:100B30004FEAD52914462A46029D4FEA163E6EF327
:100B40009A654FEA523E4FEA9638700A6EF38A254C
:100B5000019E02954FEADA3A089D6AF3492760F34D
:100B60008A26D20B68F39A67019662F38A2735F8D2
:100B7000022F08952646029D019C4FEA13284FEA52
:100B8000133E68F3DB646EF3DB654FEA53284FEAEC
:100B9000533E68F3CB246EF3CB2502952546119C7A
:100BA000980A224469F38A26029C8BF8D8294FEAD6
:100BB00093394FEA11284FEA113E60F3DB6669F37F
:100BC000DB67D80ADB0B63F3CB2768F31C756EF386
:100BD0001C7401958B0B60F3CB262546880A3C4696
:100BE0004FEA51284FEA513E60F31C7663F31C74C0
:100BF000C80A019BC90B61F30C34049468F30C33ED
:100C0000099C1F464FEA1C2363F35D7734F8023FCB
:100C1000099460F30C36049C4FEA9C204FEA9C3107
:100C200060F35D766EF30C354FEADC204FEA1C3E34
:100C300061F35D743946374660F34D374FEA5C28FF
:100C40006EF35D754FEA5C3E4FEADC3C03976CF354
:100C50004D3468F34D3101910494109F039C019E23
:100C6000900A6EF34D354FEA123E3B44110A60F391
:100C70009E746EF39E75D00A4FEA523E61F39E76E3
:100C800060F38E34510A980A6EF38E354FEA133EA4
:100C9000049F8BF88C3A60F3DF746EF3DF7561F3B9
:100CA0008E36190A02954FEA923C039461F3DF767F
:100CB000590A61F3CF36039C029901966CF39E7733
:100CC000D20BD80A4FEA533E62F38E379A0B60F389
:100CD000CF346EF3CF3162F3DF772546DA0B03941E
:100CE00002910C46394662F3CF310C9A04910846C2
:100CF00011460BF1010B41F8046C114642F8085CF7
:100D0000103141F81C4C41F8200C0C91059B02332A
:100D10000D460593FFF7AAFB139A95427FF4B0ACFA
:100D200015B0BDE8F08F00BF5090FF1F01F044BC2C
:100D30002DE9F0411F4B204D204F214E2148224CE0
:100D40001C604FF4B45200213860356002F0F2FEAE
:100D50004FF4B4520021284602F0ECFE4FF4B45296
:100D60000021204602F0E6FE184A002302F5346115
:100D700002F8013F673B8A42DBB2F9D1012000F063
:100D800007FB134E134C144D80464FF4346100F0B2
:100D900099F84046C6F8008000F09AF82146386875
:100DA000FFF744FC2146306800F086F92B462546C3
:100DB0001C46F3E74090FF1F9CC8FF1F3C90FF1F9D
:100DC0004490FF1F1CB2FF1F909BFF1F4F90FF1FFF
:100DD00010B2FF1F5CEAFF1F1CDFFF1F10B50446A7
:100DE00000F06EFA204610BD10B5064C00212046DA
:100DF00000F002FA2046044A0449BDE8104002F01F
:100E00009FBB00BF9CF5FF1F2087FF1FDD0D00006B
:100E1000F8B50C4F0C4E0D4D0D4C3846002100F02E
:100E2000EBF932462946384602F08AFB204600217B
:100E300000F0E2F9324629462046BDE8F84002F0CB
:100E40007FBB00BFA4F5FF1F2087FF1FDD0D000043
:100E5000ACF5FF1FF8B50C4F0C4E0D4D0D4C384640
:100E6000002100F0C9F932462946384602F068FBF5
:100E70002046002100F0C0F9324629462046BDE850
:100E8000F84002F05DBB00BFB4F5FF1F2087FF1FD5
:100E9000DD0D0000BCF5FF1F08B5064A064B1279B0
:100EA0001A7000F07DFC054A054B106000221A7094
:100EB00008BD00BFD8F5FF1F1F800040C4F5FF1F0D
:100EC000D4F5FF1F014B1960704700BFC8F5FF1F25
:100ED0002DE9F843694B6A4C6A4EDFF8D081FF2553
:100EE0001D6001210F2000F055FC0121162000F0AB
:100EF00051FC0121172000F04DFC0121092000F0D8
:100F000049FC01210A2000F045FC01210D2000F0E0
:100F100041FC01210B2000F03DFC01210C2000F0E0
:100F200039FC594B01211D60022000F033FC0121E6
:100F30000E2000F02FFC0121072000F02BFC0121E6
:100F4000082000F027FC0121062000F023FC0121ED
:100F5000142000F01FFC0121152000F01BFC0121D2
:100F6000052000F017FC082000F082FB214603203A
:100F700000F08EFB2146042000F08AFB3C21032078
:100F800000F078FAB021042000F074FA3F4B404A98
:100F90001A600221032000F0FDFB3E4A3E493F4B10
:100FA000116018683268DFF808C13D4C0021C0F3B9
:100FB0004F031160C2F810C0D383D382938B916129
:100FC0009BB243F00803938347422368D76002250E
:100FD0001FFA80F94FF0400E382701209560D0713C
:100FE00097719580A2F814E0C3F80080C3F810C090
:100FF000A3F81E90A3F816909A8BDFF8B8C0A3F858
:1010000014E092B242F008029A839A8B9D8092B2C9
:101010002A434FF0805E4FF01108D9609F719961AB
:101020009D609A8383F80780CCF800E033791D4DEA
:101030001D4E03F1804303F504334FF04027B222E5
:1010400041F2320EC7F800E019701A70237903F1EB
:10105000804303F50433B12219701A7022795311B9
:101060009B0003F1604302F01F0103F5614310325E
:10107000884045F822601860BDE8F88388F00F408A
:1010800000504349CCF5FF1FC8F00F4000A00440BA
:10109000020301003490044002030300C8F5FF1F5F
:1010A000D8F5FF1F0082FF1F990E00002487FF1F45
:1010B00080F00F400C0008E0F8B51C4C23781B486A
:1010C00003F0FF02002BF9D1194C1A4B2568DFF809
:1010D0007CE0DFF87CC00126067029601D68277956
:1010E0001548164C05F0E7011960DEF80030144988
:1010F0000079013B0B600EF5803E4BF6EF632360F9
:101100000EF1980E0F4B0A600F4CCCF800604FF4B4
:101110000052CEF800201F70187000F041FB2368C9
:10112000C01AC728F9D9034B1D60F8BDD4F5FF1FBD
:10113000CCF5FF1F00900340D8F5FF1F049003403B
:101140004C9003401B800040C4F5FF1F08900340F3
:10115000A0A00440F8B50C4F0C4E0D4D0D4C384678
:10116000002100F049F832462946384602F0E8F9F5
:101170002046002100F040F8324629462046BDE8CE
:10118000F84002F0DDB900BFCCF5FF1F2087FF1F3C
:10119000DD0D0000D8F5FF1F2DE9F041DFF8548088
:1011A000104D114C114F124E4046002100F024F812
:1011B0002A462146404602F0C3F93846002100F095
:1011C0001BF82A462146384602F0BAF9304600217B
:1011D00000F012F82A4621463046BDE8F04102F000
:1011E000AFB900BF2087FF1FDD0D0000F0F5FF1F26
:1011F000E8F5FF1FE0F5FF1FF0B572B699B9026878
:101200008AB103790F2B0ED8274C218841FA03F5B8
:10121000ED070AD503F1007303F59063B2EB431FAA
:1012200003D162B6F0BD204C2188002341FA03F2BD
:1012300012F0010207D00133102BF7D162B6002261
:1012400003710260F0BD01259D402943218062B6F3
:10125000164E174D174FDFF864E0D9B201713468AC
:1012600044F0020434602C6844F002042C60A6F5BB
:1012700080268224A5F5802503F100733C6003F5E8
:101280009063223E243D0C4C8EF800105B013170BF
:101290002970217003601A605A609A60DA601A61DE
:1012A0005A619A61DA61F0BDF8F5FF1F4080044091
:1012B0003C800440008000401F8000401A800040B5
:1012C00003790F2B11D8094A10B4137072B608496C
:1012D00004790A880123A34022EA03030B8062B643
:1012E0001022002310BC0271036070471A80004076
:1012F000F8F5FF1F08B5FFF719FDFFF719FD01F01D
:101300003FFAFAE708B5104C08E0236859050DD4F8
:1013100023681A050FD42368DB0411D4236858030B
:10132000F3D500F0E1FB23685905F1D501F012FC7B
:1013300023681A05EFD501F0A3FC2368DB04EDD583
:1013400001F034FDEAE700BF3480044008B5FFF740
:10135000D9FF00BF014B10221A80704700200540C2
:10136000704700BF094908B50B6830B16A46184498
:10137000A2F58052904202D20860184608BD02F0E1
:10138000EBF80C2303604FF0FF3008BD2887FF1FE8
:1013900002F010B910B40F4B53F8302092F880428D
:1013A0002CB1012369B182F8803010BC704703EB87
:1013B000C0035B681A6841B922F002021A6010BCCF
:1013C000704782F8003110BC704742F003021A6087
:1013D00010BC7047543F00001C4A02EBC0030129B7
:1013E0005B6811D004291BD052F83000002280F82D
:1013F000802229B1022920D0032922D01A60704707
:101400004FF480721A60704752F830004FF4A272A5
:1014100080F880121A601A6822F020021A60704761
:1014200052F830104FF4A272012081F880021A6045
:101430001A6842F020021A60704740F203121A60E4
:1014400070474FF481721A60704700BF543F00002C
:1014500030B4054B054D064C002210211A602A605D
:101460002060196030BC704714D0034004D00340A2
:1014700000D00340282838B52ED0002904464FDD7F
:101480005F4B1B78012505FA03F28A4202D8212816
:1014900037D938BD0338C2B2012A3AD9202C4AD0F4
:1014A000192C48D0574A126802FB011222FA03F3A2
:1014B0001D2800F29B80DFE800F0928B847D9999D3
:1014C000766F99999999999999999968615A5399C7
:1014D0004C99999999999945494B1B780B2B08D9A7
:1014E0000C2B1CBF0C3B19410846BDE8384001F0ED
:1014F00003BBC3F10C0399400846BDE8384001F036
:10150000FBBA2946FFF746FF2946BDE83840FFF7FA
:1015100063BF3D4A126802FB011222FA03F3C7E7D8
:101520002128B6D80021FFF735FF20460121BDE86C
:101530003840FFF751BF354A126802FB011222FA08
:1015400003F3B5E73249334A0B604FF4517313602C
:1015500038BD3149314A0B604FF45173136038BDC7
:101560002F49304A0B6040F24443136038BD2E4986
:101570002E4A0B6040F24443136038BD2C492D4A7B
:101580000B6040F24443136038BD2B492B4A0B607B
:1015900040F24443136038BD29492A4A0B6040F2A7
:1015A0004443136038BD2849284A0B6040F2444345
:1015B000136038BD2649274A0B6040F2444313604C
:1015C00038BD2549254A0B6040F24443136038BDBD
:1015D0002349244A0B604FF45173136038BD2249EC
:1015E000224A0B604FF45173136038BD212C3FF633
:1015F00050AF7F29D4BF00210121204693E700BFCF
:101600002C87FF1F088003400890034008800B4090
:1016100010800B4048A0044018800B404CA00440B0
:101620001880034008B004401080034004B0044018
:101630004080034018C004403880034014C0044078
:101640002880034010B00440208003400CB00440C8
:101650003080034010C00440488003401CC0044058
:1016600018900340349004401090034030900440A0
:1016700038B1102828BF1020044AC3B21078137064
:101680007047024A01231078137070472C87FF1FA0
:101690002DE9F8430E4680463249334D304601F07D
:1016A00007FF47F6122300281ABF1D464FF0020914
:1016B0004FF00109002425FA04F001F003FD4FF07A
:1016C0005E51074601F056FD0146304601F004FF29
:1016D00030B90134072CEED1E80901F0F3FC0746DC
:1016E0003146384601F0FAFD4FF07C5101F038FCEC
:1016F00001F006FF4FF6FF729042A8F1030328BFE6
:101700001046012B29D9B8F1170F17D8174B23FA18
:1017100008F303F0010383F0010223B9B8F1190FB4
:101720000FD0BDE8F883124B124D13491A6044EAFA
:10173000C9042A6008601C60BDE8F883B8F1200F76
:10174000ECD10E4B0E4D0F49002244EAC9041A6039
:101750002A6008601C60BDE8F8830B4B0B4D0C49F8
:10176000F2E700BF001BB740006CDC026006F0002F
:1017700000800340048003400880034000800B4049
:1017800004800B4008800B4000900340049003400D
:1017900008900340212801D8FFF71EBE704700BF04
:1017A00072B60C490C4B0D4A1B680868126862B689
:1017B000520102D5322B88BF01300949C3F5BB3332
:1017C0004FF47A72FF33A1FB031302FB00F000EB2E
:1017D00093107047FCF5FF1F18E000E004ED00E0F7
:1017E000ABAAAAAA2DE9F843054672B6204F214BB1
:1017F000214A1B683C68126862B6520102D5322B3E
:1018000088BF013495B3C3F5BB331C4EDFF8649039
:10181000DFF86480FF334FF47A72A6FB031302FBF8
:1018200004F404EB931472B6D9F800103A68D8F8AF
:1018300000E062B6C1F5BB33FF33A6FB03031EF025
:10184000806FC4EB93134FF47A7002D0322988BFB3
:10185000013200FB0233B3F57A7F04D3013D05D09A
:1018600004F57A74DFE700F08BFFDCE7BDE8F8836E
:10187000FCF5FF1F18E000E004ED00E0ABAAAAAA07
:10188000F8B52D4B2D49DFF8D0E0DFF8D0C02C4E55
:101890002C4D2D4C2D4A2E4F4FF4000018604FF068
:1018A000807018604FF0007018604FF08060186012
:1018B0004FF0006018600020086028234BF6FF718D
:1018C000CCF80010CEF80030336013602B6023603A
:1018D0003B60B3629362092245F8242CC4F8D80F08
:1018E00005F57F65C7F8D41F07F5FF2707F5FA67E9
:1018F000C6F8F83F2B6006F5FF26C4F8D42F05F58F
:10190000FD2504F5FF24386006F2F47611483160B5
:1019100005F5FF6504F5FD642B602360026001F0AE
:101920007BF81920FFF75EFF00F046FE40F213102F
:10193000BDE8F840FFF756BF08E100E0048003402F
:1019400014800340248003402C8003401C8003400B
:101950003480034000800B400C800340088003402B
:10196000431E032B14D872B60A4951F8230068B1FC
:1019700070B4094C058834F81320466841F8236098
:10198000521B24F8132062B670BC704762B67047D1
:101990000020704758F6FF1FD8F8FF1F30B472B60A
:1019A0002B4A13781D0706D52A4B196A002936D011
:1019B000996A002941D053781C0706D5254B196C2C
:1019C00000293ED0996C002939D09378190705D5A4
:1019D000204B196E002936D0996E89B1D3781B0738
:1019E00007D51C4BD3F880207AB3D3F88820112177
:1019F0003AB162B6184B00221A7030BC00F068BED3
:101A00000D21154C154D227843F8315003EBC103DD
:101A10000830013A5860227062B630BC7047042228
:101A20000D4C0F4D217843F8325003EBC2030830C0
:101A30004A1E5860227062B6EFE70521E1E70921EE
:101A4000DFE70822ECE70C22EAE71022E8E700BF14
:101A5000644000000080FF1FD5F6FF1FC800400053
:101A600088004000431E032B1DD81B4A400140F054
:101A7000100030B4104472B6184CE25C032A1BD834
:101A8000DFE802F00212151703220D88E25410F06D
:101A9000080F14BFC823882343EA054308310360B5
:101AA000416062B630BC704708300222EDE7052283
:101AB000EBE708300422E8E7094A52F8230038B17E
:101AC000084A52F82300416042F8231062B6E9E761
:101AD00042F82310034AF7E70080FF1FE4F6FF1FD8
:101AE000ACF6FF1FBCF6FF1F2DE9F04FDFF80CB37B
:101AF000DFF80CA387B044E0AB4F4FEA930807EB45
:101B0000C809013ED9F8042003F00803F6B2A2F197
:101B1000080003F0FF04002B40F0028157F8383032
:101B20001B0C99B222F8081C002B00F0F0809F4B90
:101B300022F8064C42F8044C53F82620002A00F004
:101B4000C5829B4D55F8263058609A4C45F82600C2
:101B500034F81630194424F8161000F099FD0028C6
:101B600000F0AD82944A954B19F0080F00F108007F
:101B700018BF1346C9F8040047F8383008238BF81B
:101B800000309BF80040E4B261071AD58C4B1B78FB
:101B9000A3B18C490A7802F0FF0322B1013BDBB20A
:101BA0000B7003B900BE88490A7802F0FF032AB11E
:101BB000013BDBB20B70002B00F0578204238BF843
:101BC000003004F0080303F0FF02002B00F0CC808B
:101BD0009AF80030DBB21E098ED19C08DFF8C8915C
:101BE00059F8342009EBC401C2F38302013A496871
:101BF0000C2A00F28880DFE802F07C7C86868686EC
:101C000086864786868607000868704D4A68704F4A
:101C1000704E286081B240F28160674B6A604FF07D
:101C2000010E0022814249F834303A60C9F8102090
:101C3000C9F8182086F800E05B4C00F2E380B1F5AB
:101C4000D06F80F04683B1F5817F00F0FC8200F216
:101C50008D82802900F07783822940F0FA82A9885A
:101C600001F07F01042900F2F4825B485B4C89009B
:101C70000844227062700278930740F1588484F817
:101C800000E04FF0020E42E3514F3A6832B3544B3A
:101C9000504E5449188834780D784028864645F0CF
:101CA000020828BF4FF0400E002C84F0010434706D
:101CB000CEEB00000CBF8824C82409EBC80680B214
:101CC00085F0010544EA0E447260188049F83840F6
:101CD00072440D70002800F045813A603B4B1A8831
:101CE000B2F5A06F0FD100219A7859703E4B1A704F
:101CF00009E0364A108842F22102904200F0378112
:101D00002D4A49F83420394A0123137036E72A4A0C
:101D10002A4B19F0080F18BF134647F838302DE743
:101D200000F0D6FC324A334952F82630002B00F03E
:101D3000D18158688C5D42F8260003F10802C9F889
:101D40000420032C05D8DFE804F02C022926022207
:101D50008A551A8819F0080F0CBF8823C82343EA54
:101D6000024347F8383009E7E00700F18181210696
:101D700000F1F281A20706D51F4A204913780220FC
:101D8000DBB213700870E30602D51C4B10221A70E8
:101D900007B0BDE8F08F04228A55DAE705228A559C
:101DA000D7E703228A55D4E70080FF1F58F6FF1FAC
:101DB00004F6FF1FD8F8FF1FC8004000880040004D
:101DC000E0F6FF1F69F6FF1FE8F6FF1FCCF6FF1FC6
:101DD00000F6FF1F68F6FF1FC0200740D8F6FF1F60
:101DE00014F6FF1FD4F6FF1F9820074094200740E9
:101DF000ACF6FF1FE4F6FF1F882007408020074055
:101E00009020074042F22100814200F02A8100F236
:101E1000D880B1F5086F00F07682B1F5106F40F010
:101E20001882226AB349A8780870120600F13A8332
:101E3000D9F82820B049130600F10C83D9F83020D6
:101E4000AD49150600F10183D9F83820AA491406D6
:101E500000F1F682D9F84020A749100600F14A8324
:101E6000D9F84820A449120600F13F83D9F8502040
:101E7000A149130600F13483D9F858209E4915066C
:101E800000F12983D9F860209B49140600F11E83D4
:101E9000D9F868209849100600F11383D9F870200A
:101EA0009549120600F10883D9F878209249130663
:101EB00000F1FD82D9F880208F49150600F13183A9
:101EC000D9F888208C49140600F12583D9F8902090
:101ED0008949100600F11983D9F89820864912061D
:101EE00000F10D838548864A864901908648874DD2
:101EF000874C049700230596029580460F461646A8
:101F00001D460394306828B1446800F0E1FB204688
:101F1000002CF9D100233360029B38681A46002355
:101F200042F8253028B1446800F0D2FB2046002C4E
:101F3000F9D100223A60019A98F800301146002247
:101F400041F8042B039A0191023B4FF0000122F863
:101F50001510032B00F22B81DFE813F0700125012F
:101F600070012501BEF1400F18BF0022B5E6694A95
:101F70000D784878157050708D78C8789570D0704D
:101F800010680D79157186284D798979557191718F
:101F900000F09B816049614E0A78307882F001053B
:101FA000002842F002020D700CBF8821C82149F8B8
:101FB000321009EBC20280F0010000213070516044
:101FC0009EE642F22120814240F0CB81544B554C99
:101FD0005549A8781D682560CDF804E008700020F8
:101FE00002908046844604464B490D7845F0020E27
:101FF00009EBCE030393019B002B039B5C600CBF9A
:102000008824C82444EA080385F0010449F83E30D6
:1020100032700C70DFF8E0E0404BDFF8FC80002805
:1020200040F01E81BCF1400F1BD144F0020C09EBC3
:10203000CC03029CDFF8C0E05C60002A40F02681FF
:10204000020442F088029DF804304EF83C2004441B
:1020500033700D702346402803D10020334A3B6083
:102060001080334A012313704DE600F065FBA5E5AF
:10207000214B2F4828491A614FF0020E80F800E0EA
:102080002C4F0A702C49196099602C4E2C4D2D4C08
:102090009A610D213970FF213170DFF8B8E02970A5
:1020A0002270294D294A8EF800109F27012406F836
:1020B000047C5D600470DA6007B0BDE8F08F244AEC
:1020C00047F8380013780133137057E543F82600BA
:1020D0000E4D3AE58B5D032B00F2F08001A252F821
:1020E00023F000BF7D1B00007D1B0000A12100002C
:1020F0009B210000E0F6FF1F0080FF1FBCF6FF1FC2
:1021000058F6FF1FACF6FF1FE4F6FF1F04F6FF1F93
:10211000D8F8FF1FE0F8FF1FD4F6FF1F68F6FF1F77
:10212000FCF5FF1FE8F8FF1FF4F6FF1F14F6FF1F72
:1021300094200740C02007408800400088200740C6
:10214000802007409820074018F6FF1F6CF6FF1FFD
:10215000D5F6FF1F8C200740C149C24B80220D20BD
:1021600008701A70A2077FF50EAE05E640F2023243
:10217000914240F0EE80A98801F07F01042968D8DF
:102180006A88002A65D1B648CDF804E08900084481
:10219000017841F00201017021E701238B55EDE444
:1021A00000238B55EAE44FF0010388F80030013535
:1021B000042D06F1040607F1040708F101087FF475
:1021C000A1AEA94CA94B2278A94D049F059E0021E0
:1021D00029701A70130700F105816278A549DFF8AC
:1021E000A0820A7010074FF00001C9F83010C9F83A
:1021F000381000F1E080A049A2780A700021C9F8E7
:102200005010C9F858101107DFF8748200F10181ED
:10221000E2789A499A4C0A7000211207C9F87010A6
:10222000C9F8781000F1B08033780193002183F071
:102230000102C9F89010C9F89810D0E64FF00003D9
:1022400088F80030B3E7A98801F07F01042940F243
:102250008D80834A0F2313708A4A0123137052E53D
:1022600040287FF6E2AE44F002040EEBC401029E69
:102270004E60BAB19DF80410834A19703346403855
:1022800088F8005040334EF83420E7E69DF80430DB
:1022900033700204029B0D7042F0C80203444EF8F2
:1022A0003C20D8E69DF804101970029B774A88F804
:1022B0000050403840334EF83420CFE619F0080F74
:1022C0000CBF022303238B5558E4714A0F21117070
:1022D00060E6704A5468002CBBD06888B5F804E00A
:1022E00003E00C325468002CB3D013888342F8D139
:1022F00053887345F5D1000A03280CBF94F800E019
:10230000B2F808E003E0644A644C12782270E8886E
:10231000704580F03F8162490D784028844645F041
:10232000020E28BF4FF0400C04EB0C0309EBCE0269
:10233000029301235460CCEB00004FEA0C480022CA
:102340000193C8245EE6554C4FF0020E2270627075
:10235000DDE7B1F5A06F7FF47CAF0123002201938C
:102360003DE642F221329142F7D072E76A88002AB4
:102370007FF46FAF3A48CDF804E089000844017853
:1023800021F0020101702AE600F082F9002800F035
:10239000EF8008303D4AC4F88400C4F8802000F083
:1023A00077F9002800F0DE800830374AC9F88C0041
:1023B000C9F8882038E700F06BF9002800F0C080E9
:1023C0000830324AC8F84400C8F8402000F060F9EC
:1023D000002800F0AF8008302B4AC9F84C00C9F83B
:1023E000482008E700F054F9002800F0CD800830BC
:1023F000264AC9F82400C9F8202000F049F900282D
:1024000000F0BC800830204AC9F82C00C9F8282008
:10241000E3E600F03DF9002800F09E8008301B4AFA
:10242000C8F86400C8F8602000F032F9002800F015
:102430008D800830144AC9F86C00C9F86820E7E6B6
:10244000C86B083800F044F904E5486B083800F020
:102450003FF9F9E4C86A083800F03AF9EEE400BF41
:10246000C02007408020074064400000C42007408F
:10247000D5F6FF1FC8200740CC200740D0200740DA
:102480000080FF1F94200740C800400088004000E3
:1024900069F6FF1F68400000E0F6FF1FD8F6FF1F37
:1024A000D4F6FF1F606A083800F012F9C0E4C86F64
:1024B000083800F00DF9FDE4486F083800F008F91D
:1024C000F2E4C86E083800F003F9E7E4486E083813
:1024D00000F0FEF8DCE4C86D083800F0F9F8D1E44B
:1024E000486D083800F0F4F8C6E4C86C083800F00D
:1024F000EFF8BBE4486C083800F0EAF8B0E4D1F833
:102500009C00083800F0E4F8ECE4D1F894000838B6
:1025100000F0DEF8E0E4D1F88C00083800F0D8F8DC
:10252000D4E4D1F88400083800F0D2F8C8E44FF0C1
:10253000020EECE62A78C9F8480001322A705AE601
:102540002A78C8F8400001322A703FE72A78C9F893
:10255000680001322A705BE62A78C8F86000013210
:102560002A7061E72A78C9F8880001322A705BE690
:102570002A78C4F8800001322A7010E72A78C9F856
:10258000280001322A7028E62A78C9F82000013292
:102590002A7032E7BEF1400FF44628BF4FF0400CDE
:1025A00004EB0C0302930123CCEB0E004FEA0C4822
:1025B0000022019318E500BFF8B500F063FC294B39
:1025C00029482A4C2A4F2B4DDFF8BCC0DFF8BCE06D
:1025D000294E00221A605A609A60DA601A615A61C4
:1025E0009A61DA611A625A629A62DA621A635A630B
:1025F0009A63DA631A645A649A64DA641A655A65EB
:102600009A65DA651A665A669A66DA661A675A67CA
:102610009A67DA67C3F880200168C3F8842041F420
:1026200080210160C3F307212170C3F307401349E0
:1026300038701B0E2B70FF238CF80030104D8EF875
:10264000003010480B700123337084F8642070262A
:102650004FF40074102207F82C3C2E70046081F8AF
:10266000F820F8BD0080FF1F348004409C20074004
:10267000B0200740B42007409420074010200740B6
:1026800049E400E008E100E080200740882007409E
:1026900072B60D480268B2FA82F30B2B10DC4FF0D1
:1026A0000041D94022EA0102026062B6074803EB0A
:1026B000C303DB00C2180021C150104651607047AF
:1026C00062B60020704700BF3087FF1FBC83FF1F2A
:1026D0000D4B0E4AC31AA2FB03231B090B2B0CD86C
:1026E0000B4A127852B972B60A484FF0004102689C
:1026F00021FA03F31A43026062B67047064A127861
:10270000002AF0D0FFF74AB9BC83FF1F398EE338A7
:10271000D5F6FF1F3087FF1FE0F6FF1F044B054A69
:102720001B6890881BB11A885B88D31A18447047BD
:10273000F0F6FF1FD8F8FF1F38B50E4B1B7873B9A2
:102740000D4C216861B103F0FF054B880B8004201C
:10275000FFF788F9256038BD084B01221A7038BD93
:10276000FFF796FF0028F7D00146BDE83840042067
:10277000FFF778B9E9F6FF1FECF6FF1FE8F6FF1F39
:1027800038B5224C237803B138BD01232370FFF7FD
:10279000C5FF70BB00F0CEF940BB00F061FA10BB82
:1027A00000F0F4FAE0B900232370EFF30583002B67
:1027B000EAD1EFF3108172B6154B1868E0B1154CF1
:1027C0002278CAB945691D6001232370C5B1AA6189
:1027D00001B962B600254577836898472570D3E72D
:1027E00000F018F9DFE700F013F9D9E700F00EF96F
:1027F000D3E700F089FBCDE70029C5D162B638BD2B
:10280000054B1D600029E5D1E3E700BFF5F6FF1F8A
:1028100008F7FF1F0CF7FF1F04F7FF1F10B4EFF3BB
:10282000108272B6437F33B9017F012907D0032993
:102830000FD00123437702B962B610BC7047124C27
:102840002168A1B1114943610B6883610860586137
:10285000EFE70F4C216881B10E4943610B6883613A
:10286000086058610C4B4FF080511960E1E7074B4D
:102870004161816120601860DBE7064B4161816145
:1028800020601860EEE700BF08F7FF1F04F7FF1F86
:10289000F8F6FF1FFCF6FF1F04ED00E010B4047F04
:1028A0004160022CC26002D010BCFFF7B7BF836842
:1028B00010BC184770B5EFF3108272B60C4C20684C
:1028C00080B10C4E00254369236073B19D6102B94C
:1028D00062B6457783689847EFF3108272B6206836
:1028E0000028F0D102B962B670BD3360EFE700BFD7
:1028F000F8F6FF1FFCF6FF1FFFF7DCBF184A30B4E5
:102900001468002C27D0036821688B420ED2CB1AA2
:1029100000218460C1602360E060106002230375C1
:1029200030BC704711688B42144608D3A2685B1A0A
:102930000360002AF6D18260C460A060EEE7D2682E
:10294000C2608460E060C568CB1A0222A860236080
:10295000027530BC70478460C4601060DEE700BF61
:1029600000F7FF1FF8B5224E34682CB32368002B04
:102970003AD1204F1D4604E03468ECB12368002BA7
:1029800032D1A36803B1DD60206933600368257527
:102990001B68BB4221D1037F4560022BC46020D05D
:1029A000FFF73CFF6368002BE6D023602046FFF76B
:1029B000A5FF3468002CE1D1EFF3108372B60E4A04
:1029C00000211068116003B962B628B18468FFF76E
:1029D00095FF20460028F9D1F8BD224600219847EE
:1029E000E0E783689847DDE7013B2360E4E700BF49
:1029F00000F7FF1F9D28000010F7FF1F024A136811
:102A000001331360FFF7AEBFFCF5FF1F704700BF37
:102A1000704700BF704700BF30B42948294A2A4B8D
:102A20002A4D6024E121047011701B78284C082B7A
:102A300030D00A2B2748284937D00C2B0CBF352221
:102A40003D2212232A60236002600B60234B24493D
:102A50001B78244ABBB101230B601360224B23492E
:102A60001B78234A012B26D9042B0FD9082B1ED9FA
:102A7000102B94BF862387230B6013601D4B01220C
:102A80001A7030BC70470B601360E7E784230B605B
:102A90001360F3E700F58E200F490830012213235D
:102AA0002A60236002600B60D0E73922F7E78523B4
:102AB0000B601360E2E780230B601360DEE700BF6A
:102AC00000400740014007403487FF1F08B0034023
:102AD0000CB0034008B00B400CB00B4015F7FF1FC3
:102AE00020B0034020B00B403587FF1F24B00340C7
:102AF00024B00B4014F7FF1F0A4A0B49136843F434
:102B0000805313600B7843B9084BC0221A70084BEE
:102B100080F30C0000B218807047044B80221A70BA
:102B2000F5E700BF2C80044015F7FF1F21C00C40C3
:102B300000C00C40054A064B10781B78C0B2DBB2CF
:102B4000984238BF4030C01A704700BF1CF7FF1FC3
:102B50001DF7FF1FF0B4384B1A7912F0300F2CD04C
:102B600072B6997D01F0FF0200293DD062B6334F65
:102B7000334938780D78334E1C46C0B2EDB2431C51
:102B8000402BE17928BF0023AB4202F1FF32C9B2EA
:102B90001CBFF154184612F0FF02F0D12A4B1B68FB
:102BA000C2B23A704BB1A84236BFC5F14005401BD6
:102BB00040192728C4BF01221A701F49CA78D2B20F
:102BC000150616D452060DD51B4B1B795B0609D58D
:102BD0001E4B1F491B6800220A7003B11A70164B66
:102BE0003C22DA70F0BC70474022D9795A7462B640
:102BF000E3E70B791C06E5D5164B174E1C783378A6
:102C0000E4B2DBB29C420ED0144D01E0A3420AD0E4
:102C10000133402B28BF00230879E85CC0B2C8719B
:102C2000087D0728F2D9DBB2034933700B79180607
:102C300044BF7C23CB70C5E700A006401CF7FF1FF4
:102C40001DF7FF1F60F7FF1F18F7FF1FA4F7FF1FF7
:102C5000A0F7FF1FA8F7FF1FA1F7FF1F20F7FF1F17
:102C6000054A064B10781B78C0B2DBB2984238BFD9
:102C70004030C01A704700BF1CF8FF1FB1F7FF1F9C
:102C8000F0B4384B1A7912F0300F2CD072B6997D0F
:102C900001F0FF0200293DD062B6334F3349387846
:102CA0000D78334E1C46C0B2EDB2431C402BE17987
:102CB00028BF0023AB4202F1FF32C9B21CBFF1545E
:102CC000184612F0FF02F0D12A4B1B68C2B23A70CC
:102CD0004BB1A84236BFC5F14005401B401927281B
:102CE000C4BF01221A701F49CA78D2B2150616D481
:102CF00052060DD51B4B1B795B0609D51E4B1F4990
:102D00001B6800220A7003B11A70164B3C22DA705D
:102D1000F0BC70474022D9795A7462B6E3E70B7968
:102D20001C06E5D5164B174E1C783378E4B2DBB29F
:102D30009C420ED0144D01E0A3420AD00133282B4F
:102D400028BF00230879E85CC0B2C871087D072855
:102D5000F2D9DBB2034933700B79180644BF7C23E8
:102D6000CB70C5E700B006401CF8FF1FB1F7FF1F8E
:102D7000DCF7FF1FACF7FF1F20F8FF1FB0F7FF1FA6
:102D800024F8FF1F1DF8FF1FB4F7FF1F054A064B6D
:102D900010781B78C0B2DBB2984238BF4030C01AFE
:102DA000704700BF2CF8FF1F2DF8FF1F30B42B4BCE
:102DB0001A7994061FD52A48DA790378294901330C
:102DC0003F2B0978C8BF00238B42D2B203D0264CD8
:102DD000D9B2E2540170254A116861B1244A1278CF
:102DE000D2B2934236BFC2F140029B1A9B18272BE6
:102DF000C4BF01230B70194AD378DBB2180611D473
:102E00005A060DD5154B1B795B0609D5194B1A4986
:102E10001B6800220A7003B11A70104B2C22DA7062
:102E200030BC704711790906EAD5144910480C786E
:102E30000178C9B28C420DD04A1C272A84BF0021D8
:102E40000A460F4D054C98BFD1B2AA5CD2B2E271CE
:102E50000170D5E76C21D170D2E700BF00C00640F9
:102E60002CF8FF1F2DF8FF1F58F8FF1F28F8FF1F31
:102E700099F8FF1F9CF8FF1F98F8FF1FA0F8FF1F8D
:102E800030F8FF1F70B584B072B6194B194D1A484F
:102E9000702241260F2480211A702E701A46047069
:102EA000197013781B06FCD5144B186862B6144BC6
:102EB000144C984298BF00EB800001A998BF4000D5
:102EC0000A2200F023F801A92046002311F8012B63
:102ED00001333AB10A2B20F8022FF7D116232370C1
:102EE00004B070BD5B00DBB2237004B070BD00BFE6
:102EF00000000240070002400600024008000240B5
:102F00007F969800C487FF1F704700BFF0B44D1E26
:102F10002E46002400E00134B0FBF2F302FB130064
:102F2000092800F130078ABF3730F8B2C0B206F87E
:102F3000010F1846002BEED10A1953704CB11078CE
:102F400015F8016F28700133E01A834202F8016915
:102F5000F5DB0846F0BC704780F0004002E000BF9F
:102F600081F0004142001FBF5FEA410392EA030F74
:102F70007FEA226C7FEA236C6AD04FEA1262D2EBBE
:102F80001363C1BFD218414048404140B8BF5B42C3
:102F9000192B88BF704710F0004F40F4000020F05C
:102FA0007F4018BF404211F0004F41F4000121F072
:102FB0007F4118BF494292EA030F3FD0A2F10102BC
:102FC00041FA03FC10EB0C00C3F1200301FA03F1FA
:102FD00000F0004302D5494260EB4000B0F5000F1D
:102FE00013D3B0F1807F06D340084FEA310102F1DC
:102FF0000102FE2A51D2B1F1004F40EBC25008BF8E
:1030000020F0010040EA03007047490040EB000057
:1030100010F4000FA2F10102EDD1B0FA80FCACF186
:10302000080CB2EB0C0200FA0CF0AABF00EBC25085
:1030300052421843BCBFD0401843704792F0000F73
:1030400081F4000106BF80F400000132013BB5E7C6
:103050004FEA41037FEA226C18BF7FEA236C21D03C
:1030600092EA030F04D092F0000F08BF08467047A1
:1030700090EA010F1CBF0020704712F07F4F04D16F
:10308000400028BF40F00040704712F100723CBF82
:1030900000F50000704700F0004343F0FE4040F4AC
:1030A000000070477FEA226216BF08467FEA23636A
:1030B0000146420206BF5FEA412390EA010F40F455
:1030C000800070474FF0000304E000BF10F00043A1
:1030D00048BF40425FEA000C08BF704743F0964388
:1030E00001464FF000001CE050EA010208BF7047A3
:1030F0004FF000030AE000BF50EA010208BF70472A
:1031000011F0004302D5404261EB41015FEA010C3E
:1031100002BF84460146002043F0B64308BFA3F136
:103120008053A3F50003BCFA8CF2083AA3EBC25318
:1031300010DB01FA02FC634400FA02FCC2F1200237
:10314000BCF1004F20FA02F243EB020008BF20F06E
:103150000100704702F1200201FA02FCC2F12002D4
:1031600050EA4C0021FA02F243EB020008BF20EAC9
:10317000DC7070474FF0FF0C1CEAD0521EBF1CEAF7
:10318000D15392EA0C0F93EA0C0F6FD01A4480EAE5
:10319000010C400218BF5FEA41211ED04FF00063CE
:1031A00043EA501043EA5111A0FB01310CF00040FA
:1031B000B1F5000F3EBF490041EAD3715B0040EA20
:1031C000010062F17F02FD2A1DD8B3F1004F40EBF0
:1031D000C25008BF20F00100704790F0000F0CF0C3
:1031E000004C08BF49024CEA502040EA51207F3A87
:1031F000C2BFD2F1FF0340EAC250704740F4000062
:103200004FF00003013A5DDC12F1190FDCBF00F052
:1032100000407047C2F10002410021FA02F1C2F100
:10322000200200FA02FC5FEA310040F1000053EA9C
:103230004C0308BF20EADC70704792F0000F00F0EA
:10324000004C02BF400010F4000F013AF9D040EAF0
:103250000C0093F0000F01F0004C02BF490011F484
:10326000000F013BF9D041EA0C018FE70CEAD15382
:1032700092EA0C0F18BF93EA0C0F0AD030F0004C02
:1032800018BF31F0004CD8D180EA010000F00040B6
:10329000704790F0000F17BF90F0004F084691F074
:1032A000000F91F0004F14D092EA0C0F01D14202AE
:1032B0000FD193EA0C0F03D14B0218BF084608D177
:1032C00080EA010000F0004040F0FE4040F40000C1
:1032D000704740F0FE4040F4400070474FF0FF0C54
:1032E0001CEAD0521EBF1CEAD15392EA0C0F93EA9B
:1032F0000C0F69D0A2EB030280EA010C49024FEAED
:10330000402037D04FF0805343EA111143EA1013A5
:103310000CF000408B4238BF5B0042F17D024FF45D
:10332000000C8B4224BF5B1A40EA0C00B3EB510F38
:1033300024BFA3EB510340EA5C00B3EB910F24BF21
:10334000A3EB910340EA9C00B3EBD10F24BFA3EBA6
:10335000D10340EADC001B0118BF5FEA1C1CE0D16E
:10336000FD2A3FF650AF8B4240EBC25008BF20F021
:10337000010070470CF0004C4CEA50207F32C2BF75
:10338000D2F1FF0340EAC250704740F400004FF012
:103390000003013A37E792F0000F00F0004C02BF43
:1033A000400010F4000F013AF9D040EA0C0093F00D
:1033B000000F01F0004C02BF490011F4000F013B67
:1033C000F9D041EA0C0195E70CEAD15392EA0C0FCF
:1033D00008D142027FF47DAF93EA0C0F7FF470AF07
:1033E000084676E793EA0C0F04D14B023FF44CAF4A
:1033F00008466EE730F0004C18BF31F0004CCAD1DF
:1034000030F000427FF45CAF31F000437FF43CAF1A
:103410005FE700BF4FF0FF3C06E000BF4FF0010C3C
:1034200002E000BF4FF0010C4DF804CD4FEA40021E
:103430004FEA41037FEA226C18BF7FEA236C11D068
:1034400001B052EA530C18BF90EA010F58BFB2EB1B
:10345000030088BFC81738BF6FEAE17018BF40F09B
:10346000010070477FEA226C02D15FEA402C05D14F
:103470007FEA236CE4D15FEA412CE1D05DF8040BD4
:10348000704700BF844608466146FFE70FB5FFF767
:10349000C9FF002848BF10F1000F0FBD4DF808ED1F
:1034A000FFF7F4FF0CBF012000205DF808FB00BF10
:1034B0004DF808EDFFF7EAFF34BF012000205DF86A
:1034C00008FB00BF4DF808EDFFF7E0FF94BF0120B7
:1034D00000205DF808FB00BF4DF808EDFFF7D2FFB4
:1034E00094BF012000205DF808FB00BF4DF808EDF7
:1034F000FFF7C8FF34BF012000205DF808FB00BFC4
:1035000042000ED2B2F1FE4F0BD34FF09E03B3EB4D
:10351000126209D44FEA002343F0004323FA02F079
:1035200070474FF00000704712F1610F01D1420265
:1035300002D14FF0FF3070474FF00000704700BFDE
:103540000B460146184600F001B800BF13460A4674
:103550000146022000F052BB014B1868704700BFC3
:10356000088CFF1F70B50F4E0F4D761BB61018BF9D
:10357000002405D0013455F8043B9847A642F9D100
:103580000A4E0B4D761B00F09BFDB61018BF0024B1
:1035900006D0013455F8043B9847A642F9D170BDD6
:1035A00070BD00BFCC400000CC400000E8400000EF
:1035B000CC400000024B0146186800F003B800BF81
:1035C000088CFF1F2DE9F04F01F10B05162D83B07C
:1035D000064640F29F8035F0070500F1BF80A94202
:1035E00000F2BC8000F0F4FAB5F5FC7FC0F09C82DC
:1035F0006B0A00F0BA80042B00F28381A80900F165
:10360000390E4FEA4E033830C44F07EB8303A3F162
:1036100008015C68A14207D1ACE0002A80F2AC80CE
:10362000E468A14200F0A680636823F003035A1BFC
:103630000F2AF2DDB9493C6901F1080E744500F02A
:10364000B381636823F003035A1B0F2A00F39981A7
:10365000002AC1F814E0C1F810E080F29E80B3F5B2
:10366000007F80F06781DB0803F1010C01229B10D1
:1036700002FA03F34A6851F83C80C4F8088001EB71
:10368000CC091A43A9F10803E3604A6041F83C40C1
:10369000C8F80C40831001249C40944200F28A80B8
:1036A000144206D120F003006400144200F104002B
:1036B000FAD007EBC009CC468046DCF80C108C45EC
:1036C00007D173E1002A80F28181C9688C4500F03E
:1036D0006D814B6823F003035A1B0F2AF2DD0C4661
:1036E000D1F80CC054F8088F4B1945F001054D6016
:1036F00042F00101C8F80CC03046CCF808807B616C
:103700003B61C3F80CE0C3F808E059609A5000F040
:1037100061FA1FE0102921D800F05AFA102506237B
:1037200002207E4F07EB8303A3F108025C689442FA
:1037300000F045816368E168A56823F00303234432
:1037400030465A68E96042F001028D605A6000F02C
:1037500041FA0834204603B0BDE8F08F00240C2362
:103760002046336003B0BDE8F08F80234FF0400E59
:103770003F2049E770465DE72344E1685A68A56841
:1037800042F00102E96030468D605A6000F022FA92
:103790000834204603B0BDE8F08F234430465A6811
:1037A00042F001025A6000F015FA0834204603B0D6
:1037B000BDE8F08FBC68636823F00308A84504D314
:1037C000C5EB08030F2B00F38C80554BDFF860919D
:1037D0001A68D9F8003001332A4404EB080A00F0D3
:1037E000608102F580520F3222F47F6222F00F02D4
:1037F00011463046019200F0EFF9B0F1FF3F8346E9
:10380000019A00F05881824500F2FC80454B19680E
:10381000DA451144196000F05381D9F80000DFF84F
:1038200010E101301BBFCAEB0B0A5144CEF800B0C7
:1038300019601BF0070100F01781C1F10800C1F504
:103840008051834408315A44C2F30B02C2EB010990
:1038500049463046019300F0BFF9431C019B00F03C
:103860003F81CBEB00024A4442F001021968C7F8DD
:1038700008B04944BC42CBF804201960DFF8A4909A
:1038800016D0B8F10F0F40F2FD806268A8F10C036A
:1038900023F00703E01802F001024FF0050E1A436F
:1038A0000F2B6260C0F804E0C0F808E000F21C8151
:1038B0001D4BBC681A68914288BF19601B4B1A687F
:1038C0009142626888BF196022F003029542A2EB20
:1038D000050301D80F2B04DC304600F07BF90024EF
:1038E00038E7621943F0010345F001056560304691
:1038F000BA60536000F06EF90834204603B0BDE8AA
:10390000F08F142B71D9542B00F2A480280B00F1F6
:103910006F0E4FEA4E036E3076E600BF0C8CFF1F31
:10392000ACF8FF1FB0F8FF1FA8F8FF1FA4F8FF1F97
:103930001890FF1F5A0A042A5ED9142A00F2B38095
:1039400002F15C0149005B3207EB810C57F8211052
:10395000DFF8DC81ACF1080C8C4500F088804A6807
:1039600022F00302934202D289688C45F7D1D1F844
:103970000CC07A68C4F80CC0A160CCF80840CC60D8
:1039800088E6631942F0010745F00105656030469D
:103990004B610B61C3F80CE0C3F808E05F609A501C
:1039A000083400F017F9D5E64A6873E608F1010813
:1039B00018F0030F0CF1080C7FF47FAE30E0DC68E8
:1039C000A34208BF02303FF435AEB3E60B440C46C9
:1039D0005A68C96854F8085F42F001025A603046DC
:1039E000E9608D6000F0F6F8B4E603F15C0E03F1D7
:1039F0005B004FEA4E0307E69A0902F139014900DC
:103A00003832A1E7BC424A4B3FF400AF9C68626881
:103A100022F003025AE759F80839994540F08280AC
:103A200010F0030F00F1FF30F5D17B6823EA0403A7
:103A30007B6064009C423FF6BDAE002C3FF4BAAE02
:103A40001C4240467FF435AE64001C4200F1040085
:103A5000FAD02EE6B3F5AA7F18D8E80B00F1780E5D
:103A60004FEA4E037730CFE54FF48051EBE601216A
:103A7000D8F80430921001FA02F21A43C8F8042070
:103A8000614677E70123CBF8043025E740F2545232
:103A9000934220D8A80C00F17D0E4FEA4E037C30F3
:103AA000B2E51032A4E6542A26D81A0B02F16F01AF
:103AB00049006E3248E7BC68626822F0030205E7FD
:103AC000CAF30B0000287FF4A8AE4244BB6842F062
:103AD00001025A60ECE6FE234FF07F0E7E2093E554
:103AE00001224FF00009C1E604F10801304600F060
:103AF00049F9D9F80010DBE6B2F5AA7F05D8DA0B50
:103B000002F17801490077321EE740F254518A42AF
:103B100005D89A0C02F17D0149007C3214E7FE21A0
:103B20007E2211E77B6884E7E808431C5B00F8E528
:103B30000C8CFF1F70B4840746D0541E002A41D05D
:103B4000CDB2034602E0621EE4B3144603F8015B03
:103B50009A07F8D1032C2ED9CDB245EA05250F2CB2
:103B600045EA054519D903F110022646103E0F2EED
:103B700042F8105C42F80C5C42F8085C42F8045CC5
:103B800002F11002F2D8A4F1100222F00F0204F0A8
:103B90000F041032032C13440DD91E462246043A5A
:103BA000032A46F8045BFAD8221F22F003020432EB
:103BB000134404F003042CB1C9B21C4403F8011BE4
:103BC000A342FBD170BC704714460346C2E700BF56
:103BD000704700BF704700BF38B5074C002305464B
:103BE00008462360FDF7BEFB431C00D038BD2368A8
:103BF000002BFBD02B6038BDECF8FF1F2DE9F04700
:103C0000254C2568D5F8484106468846924699468F
:103C1000C4B360681F2817DC431C76B104EB800531
:103C20000122C5F888A0D4F8881182401143022EE1
:103C3000C4F88811C5F808911ED00230636044F8BA
:103C400020800020BDE8F087144B03B34FF4C87008
:103C5000FFF7B0FC0446D0B1D5F84831002780E822
:103C60008800C5F8484138460123C4F88871C4F873
:103C70008C71002EE1D0D1E7D4F88C110A43C4F83E
:103C80008C21DAE705F5A674C5F84841C1E74FF085
:103C9000FF30BDE8F08700BFBC400000B535000034
:103CA000024B13B1024800F005B870470000000055
:103CB000C13C0000002301461A461846FFF79EBF8C
:103CC00038B5074D074C2C1BA41005D0013C55F806
:103CD000043D9847002CF9D1BDE8384000F004BA03
:103CE0000000000000000000F8B5234F0C46064617
:103CF000FFF76EFFBB685D6825F00305291B01F621
:103D0000EF7121F47F6121F00F01A1F58054B4F52A
:103D1000805F07DB00213046FFF75EFFBB682B4466
:103D2000984204D03046FFF755FF0020F8BD6142AD
:103D30003046FFF751FF01300DD0104BBA681968BB
:103D40002D1B45F001053046091B55601960FFF732
:103D500041FF0120F8BD00213046FFF73DFFBA6862
:103D6000831A0F2BDEDD064C0449246843F001035F
:103D7000001B53600860D5E70C8CFF1FB0F8FF1FD5
:103D80001890FF1F002945D02DE9F0410D468046CF
:103D9000FFF71EFF55F8047C6A4927F00103A5F1DF
:103DA0000804E2188E685068B24220F0030062D026
:103DB000FE0750600BD455F8087CE41B01F1080E97
:103DC000A56875453B446FD0E768EF60BD60151886
:103DD0006D68ED0742D543F001026260E350B3F530
:103DE000007F18D2DB085A1C4D6851F83270A7606A
:103DF00001209B1000FA03F301EBC2001D430838B9
:103E0000E0604D6041F83240FC604046BDE8F04162
:103E1000FFF7E0BE70475A0A042A53D89A0902F104
:103E200039077F0002F1380501EB870051F82720A0
:103E30004449083890424DD0516821F003018B422B
:103E400002D292689042F7D1D068E060A2608460AC
:103E5000D4604046BDE8F041FFF7BCBE95683A4FDC
:103E6000BD4203443FD0D068E86043F00102856062
:103E70006260E350B3E7FF07034407D455F8082C0A
:103E8000A41A1344A068E268C26090602F4A1268C6
:103E900043F00100934260608C60B6D32C4B4046E7
:103EA0001968FFF721FFB0E711184968C90744D422
:103EB0009168D268CA60034443F001009160606079
:103EC000E350A2E7142A17D802F15C077F0002F141
:103ED0005B05A9E7AA104B68012505FA02F2134316
:103EE0004B600246B1E743F001024C610C61E560B2
:103EF000A5606260E35088E7542A06D81A0B02F1E5
:103F00006F077F0002F16E058EE7B2F5AA7F06D833
:103F1000DA0B02F178077F0002F1770584E740F2BF
:103F20005450824206D89A0C02F17D077F0002F1BC
:103F30007C0579E7FE277E2576E743F00102626083
:103F4000E35062E70C8CFF1F148CFF1F1490FF1FBF
:103F5000ACF8FF1F4008FE4340A004404408FE4365
:103F600044A004400018FE4300C004403000FE435B
:103F7000309004403400FE43349004401C18FE434B
:103F80001CC004401018FE4310C004400818FE4333
:103F900008C004400C18FE430CC004400C10FE4343
:103FA0000CB004401010FE4310B004401810FE4343
:103FB00018B004401C10FE431CB004401410FE4313
:103FC00014B004400418FE4304C004400010FE4333
:103FD00000B004400008FE4300A004400408FE4373
:103FE00004A004400C08FE430CA004400808FE4353
:103FF00008A004401418FE4314C004401818FE43DF
:1040000018C004400410FE4304B004400810FE43EE
:1040100008B004401400FE43149004404C08FE43D2
:104020004CA004400420FE4304D004402410FE436E
:1040300024B004402010FE4320B004402810FE436A
:1040400028B004402C10FE432CB004400020FE4356
:1040500000D004404808FE4348A004401000FE433E
:104060001090044000151915000100003887FF1F4B
:1040700012000000000200006487FF1F43000000E0
:1040800000030000C087FF1F0000000001030904B7
:104090004C87FF1F0000000002030904A887FF1FD0
:1040A0000000000003030904C487FF1F0000000094
:1040B000000000000000000000000000E087FF1F7B
:1040C000F8B500BFF8BC08BC9E467047A13C000094
:1040D00035040000E90D0000110E0000550E00002F
:0840E0005511000099110000C8
:0440E800F8B500BF68
:1040EC0000000000FFFF0000F0F8FF1F08000000B8
:1040FC00FFFFFFFF0A040000120110010200004044
:10410C00C016830475020102030100001803540059
:10411C00650065006E00730079006400750069002D
:10412C006E006F0009024300020100C03209040056
:10413C000001020201000524001001052401010107
:10414C000424020605240600010705820310004022
:10415C0009040100020A00000007050302400000E8
:10416C00070584024000000016035500530042006E
:10417C002000530065007200690061006C000000B3
:10418C00040309040C030000000000000000000000
:10419C000000000000000000000000000000000013
:1041AC0000000000CC8AFF1F348BFF1F9C8BFF1F6D
:1041BC0000000000000000000000000000000000F3
:1041CC0000000000000000000000000000000000E3
:1041DC0000000000000000000000000000000000D3
:1041EC0000000000000000000000000000000000C3
:1041FC0000000000000000000000000000000000B3
:10420C0000000000000000000000000000000000A2
:10421C000000000000000000000000000000000092
:10422C000000000000000000000000000000000082
:10423C000000000000000000000000000000000072
:10424C000000000000000000010000000000000061
:10425C000E33CDAB34126DE6ECDE05000B00000026
:10426C000000000000000000000000000000000042
:10427C000000000000000000000000000000000032
:10428C000000000000000000000000000000000022
:10429C000000000000000000000000000000000012
:1045CC000000000000000000E087FF1F000000005A
:1045DC00000000000C8CFF1F0C8CFF1F148CFF1FA5
:1045EC00148CFF1F1C8CFF1F1C8CFF1F248CFF1FA7
:1045FC00248CFF1F2C8CFF1F2C8CFF1F348CFF1F57
:10460C00348CFF1F3C8CFF1F3C8CFF1F448CFF1F06
:10461C00448CFF1F4C8CFF1F4C8CFF1F548CFF1FB6
:10462C00548CFF1F5C8CFF1F5C8CFF1F648CFF1F66
:10463C00648CFF1F6C8CFF1F6C8CFF1F748CFF1F16
:10464C00748CFF1F7C8CFF1F7C8CFF1F848CFF1FC6
:10465C00848CFF1F8C8CFF1F8C8CFF1F948CFF1F76
:10466C00948CFF1F9C8CFF1F9C8CFF1FA48CFF1F26
:10467C00A48CFF1FAC8CFF1FAC8CFF1FB48CFF1FD6
:10468C00B48CFF1FBC8CFF1FBC8CFF1FC48CFF1F86
:10469C00C48CFF1FCC8CFF1FCC8CFF1FD48CFF1F36
:1046AC00D48CFF1FDC8CFF1FDC8CFF1FE48CFF1FE6
:1046BC00E48CFF1FEC8CFF1FEC8CFF1FF48CFF1F96
:1046CC00F48CFF1FFC8CFF1FFC8CFF1F048DFF1F45
:1046DC00048DFF1F0C8DFF1F0C8DFF1F148DFF1FF2
:1046EC00148DFF1F1C8DFF1F1C8DFF1F248DFF1FA2
:1046FC00248DFF1F2C8DFF1F2C8DFF1F348DFF1F52
:10470C00348DFF1F3C8DFF1F3C8DFF1F448DFF1F01
:10471C00448DFF1F4C8DFF1F4C8DFF1F548DFF1FB1
:10472C00548DFF1F5C8DFF1F5C8DFF1F648DFF1F61
:10473C00648DFF1F6C8DFF1F6C8DFF1F748DFF1F11
:10474C00748DFF1F7C8DFF1F7C8DFF1F848DFF1FC1
:10475C00848DFF1F8C8DFF1F8C8DFF1F948DFF1F71
:10476C00948DFF1F9C8DFF1F9C8DFF1FA48DFF1F21
:10477C00A48DFF1FAC8DFF1FAC8DFF1FB48DFF1FD1
:10478C00B48DFF1FBC8DFF1FBC8DFF1FC48DFF1F81
:10479C00C48DFF1FCC8DFF1FCC8DFF1FD48DFF1F31
:1047AC00D48DFF1FDC8DFF1FDC8DFF1FE48DFF1FE1
:1047BC00E48DFF1FEC8DFF1FEC8DFF1FF48DFF1F91
:1047CC00F48DFF1FFC8DFF1FFC8DFF1F048EFF1F40
:1047DC00048EFF1F0C8EFF1F0C8EFF1F148EFF1FED
:1047EC00148EFF1F1C8EFF1F1C8EFF1F248EFF1F9D
:1047FC00248EFF1F2C8EFF1F2C8EFF1F348EFF1F4D
:10480C00348EFF1F3C8EFF1F3C8EFF1F448EFF1FFC
:10481C00448EFF1F4C8EFF1F4C8EFF1F548EFF1FAC
:10482C00548EFF1F5C8EFF1F5C8EFF1F648EFF1F5C
:10483C00648EFF1F6C8EFF1F6C8EFF1F748EFF1F0C
:10484C00748EFF1F7C8EFF1F7C8EFF1F848EFF1FBC
:10485C00848EFF1F8C8EFF1F8C8EFF1F948EFF1F6C
:10486C00948EFF1F9C8EFF1F9C8EFF1FA48EFF1F1C
:10487C00A48EFF1FAC8EFF1FAC8EFF1FB48EFF1FCC
:10488C00B48EFF1FBC8EFF1FBC8EFF1FC48EFF1F7C
:10489C00C48EFF1FCC8EFF1FCC8EFF1FD48EFF1F2C
:1048AC00D48EFF1FDC8EFF1FDC8EFF1FE48EFF1FDC
:1048BC00E48EFF1FEC8EFF1FEC8EFF1FF48EFF1F8C
:1048CC00F48EFF1FFC8EFF1FFC8EFF1F048FFF1F3B
:1048DC00048FFF1F0C8FFF1F0C8FFF1F148FFF1FE8
:1048EC00148FFF1F1C8FFF1F1C8FFF1F248FFF1F98
:1048FC00248FFF1F2C8FFF1F2C8FFF1F348FFF1F48
:10490C00348FFF1F3C8FFF1F3C8FFF1F448FFF1FF7
:10491C00448FFF1F4C8FFF1F4C8FFF1F548FFF1FA7
:10492C00548FFF1F5C8FFF1F5C8FFF1F648FFF1F57
:10493C00648FFF1F6C8FFF1F6C8FFF1F748FFF1F07
:10494C00748FFF1F7C8FFF1F7C8FFF1F848FFF1FB7
:10495C00848FFF1F8C8FFF1F8C8FFF1F948FFF1F67
:10496C00948FFF1F9C8FFF1F9C8FFF1FA48FFF1F17
:10497C00A48FFF1FAC8FFF1FAC8FFF1FB48FFF1FC7
:10498C00B48FFF1FBC8FFF1FBC8FFF1FC48FFF1F77
:10499C00C48FFF1FCC8FFF1FCC8FFF1FD48FFF1F27
:1049AC00D48FFF1FDC8FFF1FDC8FFF1FE48FFF1FD7
:1049BC00E48FFF1FEC8FFF1FEC8FFF1FF48FFF1F87
:1049CC00F48FFF1FFC8FFF1FFC8FFF1F0490FF1F36
:0C49DC000490FF1F00000200FFFFFFFF1F
:00000001FF
