:1000000000800020BD01000045110000FD1000002F
:10001000FD100000FD100000FD100000FD100000AC
:10002000FD100000FD100000FD1000004511000053
:1000300045110000FD100000F1260000F52700002A
:100040004511000045110000451100004511000058
:100050004511000045110000451100004511000048
:100060004511000045110000451100004511000038
:100070004511000045110000451100004511000028
:100080004511000045110000451100004511000018
:100090004511000045110000451100004511000008
:1000A00045110000451100004511000045110000F8
:1000B00045110000451100004511000045110000E8
:1000C00045110000451100004511000045110000D8
:1000D00045110000451100004511000045110000C8
:1000E00045110000451100004511000045110000B8
:1000F000451100004D29000045110000792A00003B
:1001000045110000A52B000045110000451100001D
:100110004511000045110000451100004511000087
:100120004511000045110000451100004511000077
:100130004511000045110000451100004511000067
:100140004511000045110000451100004511000057
:100150004511000045110000451100004511000047
:1001600045110000E1180000451100004511000094
:100170004511000045110000451100004511000027
:100180004511000045110000451100004511000017
:100190004511000045110000451100004511000007
:1001A00045110000451100004511000045110000F7
:1001B000451100004511000045110000564B4CF25E
:1001C000205210B51A804DF628121A8000BF00BFC9
:1001D00000F0BCFF514B4FF010621A60504A9A6019
:1001E000504ADA60504A136813F4807304D14F49BF
:1001F0000B604FF4A85313604D4B1A78110703D5C9
:100200001A7842F008021A704A4B4B492A221A7097
:100210004A4A4B4B8B4204D252F8040F43F8040B6A
:10022000F8E7484B484900228B4202D243F8042B9E
:10023000FAE74649464A002352F8230041F82300D2
:1002400001336F2BF8D1434B434A802103F8011B44
:100250009342FBD1414B3D4A1A60414B8A221A70AE
:10026000A3F5805324225A70A0221A709A7992071B
:10027000FCD59A79D406FCD43A4A937903F00C035E
:10028000082B384BF9D103221A7140225A719A79FE
:100290009006FCD5334A9179324B4906FBD5324A58
:1002A000324911600221516020221A709A7902F0BD
:1002B0000C020C2AFAD12E4B2E4A1A602E4B2F4AD2
:1002C0001A6000225A60072243F8042C2C4AC3F813
:1002D0000C2D62B601F0D0F9144B1B68DA0705D576
:1002E000284800F0B1FF284B284A1A60284B1B7899
:1002F0005B0609D5244C254B22689A4204D121483B
:1003000000F0A2FF0023236003F028F800F024FF90
:1003100000F0ECFEFEE700BF0E20054030800440F8
:10032000823F04000100002B10D0034014D0034092
:1003300002D0074000E007401490FF1FE84500008E
:100340002087FF1F1490FF1FB0B5FF1F0082FF1F03
:100350000000000000E400E05FE400E008ED00E0E1
:100360000050064000400640448004400000030165
:1003700004800440C010050014E000E0FF76010096
:10038000000020203AEA5B5D1CE00340A5C3945ABC
:1003900000F00740FFFFFFFFFFFFFFFFFFFFFFFF32
:1003A000FFFFFFFFFFFFFFFFFFFFFFFFFFFFFFFF5D
:1003B000FFFFFFFFFFFFFFFFFFFFFFFFFFFFFFFF4D
:1003C000FFFFFFFFFFFFFFFFFFFFFFFFFFFFFFFF3D
:1003D000FFFFFFFFFFFFFFFFFFFFFFFFFFFFFFFF2D
:1003E000FFFFFFFFFFFFFFFFFFFFFFFFFFFFFFFF1D
:1003F000FFFFFFFFFFFFFFFFFFFFFFFFFFFFFFFF0D
:10040000FFFFFFFFFFFFFFFFFFFFFFFFDEF9FFFF23
:1004100010B5054C237833B9044B13B10448AFF33E
:1004200000800123237010BD1490FF1F0000000006
:10043000EC450000084B10B51BB108490848AFF364
:1004400000800848036803B910BD074B002BFBD0A0
:10045000BDE81040184700BF000000001890FF1FC3
:10046000EC4500001490FF1F000000002DE9F04F44
:10047000032089B001F070F9002800F0C58042889F
:100480000588AA4283466DDA624B634C1868634B59
:10049000D3F80090624B1B680393624B1B68029376
:1004A000614B1B680493614BD3F800C0604B4FF065
:1004B000000ED3F800A0CDF81CE002F108035B4465
:1004C000CDF818E0CDF814E0F046CDF804E076461B
:1004D00000284DD01F78218841EA07212180BCF1F6
:1004E000000F48D04FF2FF0C61455FD05FFA81FCEE
:1004F000BCF1F00F78D04FF6FF76C6EB010C4FF051
:100500000108BCFA8CFC4FEA5C1CC246CDF80480A2
:1005100080F0010001260132954203F10103D7DC8E
:10052000002E74D1019B13B1404BC3F800C0B8F149
:10053000000F02D03E4BC3F800A0059B13B1384B0F
:10054000039A1A60069B13B1364B029A1A60079BF6
:1005500013B1354B049A1A60BEF1000F02D02F4B35
:10056000C3F80090584609B0BDE8F04F01F0ACBFA9
:1005700019782180CCE7B1F57F4F0FD8B9F5617FAD
:10058000C6D22C4D029E35F8195026F8151009F1E7
:100590000109BBF800504FF0010EB9E74FF6FF76A6
:1005A000B1422DD04FF00108C246B1E7BAF1000FB9
:1005B00015D0039E02990296049E03960491029E12
:1005C000039903964FF0010E4FF00009049E029626
:1005D000F046CDF804E00491CA46CC4698E70121E4
:1005E000079106910591EAE70B494FF0010E4FF094
:1005F00000090F80F046CDF804E0CA46CC468AE7F1
:10060000012101918C4683E709B0BDE8F08F014BD1
:10061000186087E73090FF1FE4A1FF1F4C97FF1F72
:100620003490FF1F4497FF1F4097FF1FE0A1FF1F5B
:100630004897FF1F4C3D00002DE9F04F8DB001F1B0
:100640001003049301F598630B9303464FF0000ADF
:100650009433DFF840840393CDF804A08346CDF8AB
:1006600000A05646574698F80D32079398F858322E
:10067000BBF8009098F800E098F8A3520893039B09
:10068000099598F8EE520A95CE441D4688F800E088
:1006900035F8029F98F84BA098F8960098F8E1106A
:1006A00098F82C2198F877C103950AEB090388F88C
:1006B0004B30BBF82C9198F8C241484488F896001A
:1006C000BBF8C291494488F8E110BBF858924A44FB
:1006D00002929DF8082088F82C21BBF8EE9209EBD5
:1006E0000C0588F877510595BBF884C3009A6546D8
:1006F0004FEA1E3C6CF351420092019A4FEA1E2AC7
:100700004FEA9E294FEA9E3C25446AF35147009CDC
:1007100088F8C2514FEA5E2A69F351466CF35142A0
:100720004FEADE294FEA5E3C4FEADE3E6EF34102BD
:1007300001926CF3410406956AF341071D0A4FEAE2
:10074000133C65F392472546019C6CF3924569F38F
:1007500041064FEA93394FEA932A4FEA533C2A461F
:1007600069F39244DD0B6CF382026AF3924665F3FF
:1007700082044FEAD32A6AF3820625464FEA103AEA
:1007800014466AF3D3444FEA532E2246BBF81A3478
:10079000079C4FEA10296EF382074FEA902E2344FC
:1007A0004FEA503A69F3D3476EF3D3464FEA5029E4
:1007B0004FEAD02E144669F3C307029A88F80D3227
:1007C0004FEA91296EF3C3066AF3C3044FEA113E60
:1007D0004FEA903C69F314566EF314544FEAD12952
:1007E0004FEA513EC00B6CF3D34569F304166EF328
:1007F00004144FEA12394FEA112C4FEA913A69F387
:10080000555460F3C3050094BBF8B004089C6CF326
:1008100014576AF314554FEA512CC90B4FEA923E14
:1008200061F3041520446EF35555009C01954FEA81
:10083000122A6CF30417059D88F858024FEA922C8F
:100840006AF35557A246019C510A4FEA52396CF39C
:1008500055564FEAD22CD20B4FEA152E69F3451AA2
:1008600062F3451461F345176CF34516A90A019428
:100870002A464FEA153C4FEA95396EF3965761F3D5
:1008800096564FEA552EE90A5546019C6CF396554B
:100890000095069D69F3965401944FEA15292C465C
:1008A0006EF3861761F386164FEA952E290B009D8D
:1008B0004FEA523C6CF3861500954FEA943C25466E
:1008C000019C4FEAD23A6AF386140194009CBBF86B
:1008D000462561F359640094099C2244009C88F8E1
:1008E000A322690B69F359676EF359664FEA5529DC
:1008F0004FEAD52E4FEAD53A69F34927019D4FEAD1
:1009000093296EF3492661F349244FEA133E69F3B4
:100910009A666EF39A644FEAD3294FEA533E6CF31A
:10092000596569F38A266EF38A244FEA1039990BC8
:1009300069F3DB646AF3492500944FEA132C0A9C9F
:1009400061F39A65BBF8DC156CF39A674FEA532C98
:1009500021444FEA102A009C88F8EE12DB0B6CF35E
:100960008A274FEA902C4FEA903E4FEA503963F3C2
:100970008A256AF3DB67430A6CF3DB664FEAD02C07
:100980004FEA122AC00B6EF3DB6563F3CB274FEA05
:10099000922E6CF3CB2669F3CB244FEA123C98F8E5
:1009A00039334FEA923960F3CB256AF31C77BBF8F1
:1009B00072064FEA522A6EF31C766CF31C744FEAEF
:1009C000D22E4FEA523C69F31C75D20B4FEA112923
:1009D0006AF30C376EF30C366CF30C344FEA113EAD
:1009E000034462F30C356EF35D744A0A4FEA513EDC
:1009F00069F35D774FEA913C62F34D376EF34D3406
:100A00001A0A4FEA133EC80A6EF39E744FEA912AFF
:100A10006CF35D75C90B62F39E775A0A4FEA533E39
:100A200061F34D3562F38E37990B22466EF38E32A9
:100A300061F39E756AF35D76D90B144660F34D360B
:100A40000092980A2A4661F38E3260F39E76D80AA5
:100A500060F38E3601921046049A88F839331146B5
:100A6000134642F8047C42F8086C103341F80C4CF1
:100A700043F8200C1C460493FFF7F8FC0B9A9442B1
:100A80000BF1020B08F101087FF4EDAD0DB0BDE8EC
:100A9000F08F00BF5097FF1F01F08ABCF0B5224BCA
:100AA000224D234F234E2448244C1C6083B04FF426
:100AB000E16200213860356002F038FF4FF4E162F6
:100AC0000021284602F032FF4FF4E1620021204667
:100AD00002F02CFF1A4A002302F5967102F8013F3A
:100AE00066338A42DBB2F9D1012000F04DFB154B91
:100AF00000930546012348F281124FF49661124E8D
:100B0000124C00F067F82846356000F077F8104D79
:100B100038682146FFF790FD2146306800F06CF9F7
:100B20002B4625461C46F3E74097FF1FE8A1FF1F11
:100B30003490FF1F4497FF1F3890FF1FD49AFF1F68
:100B40004F97FF1F60E31600DCA1FF1FA0ADFF1F42
:100B5000F0A8FF1F10B5044600F0AEFA204610BD05
:100B600010B5064C0021204600F042FA2046044A07
:100B70000449BDE8104002F0DFBB00BF50B2FF1FC8
:100B80002087FF1F550B000008B50B4B0B4A197946
:100B90000B4B11701B880B480B49DA436FEA132388
:100BA000D2B2DBB202600B6000F0F6FC074A084BE1
:100BB000106000221A7008BD68B2FF1F1F8000403D
:100BC00064B2FF1F80F00F40C0F00F4070B2FF1FF3
:100BD00078B2FF1FF0B4054F054E064D064C396044
:100BE000049932802B602160F0BC70477CB2FF1FFB
:100BF00064B2FF1F74B2FF1F58B2FF1F2DE9F84304
:100C00006E4D6F4C2B886F486F4E704FDFF8E4913C
:100C1000DA436FEA1323D2B2DBB222600121036010
:100C20000F2000F0B3FC0121162000F0AFFC0121E1
:100C3000172000F0ABFC0121092000F0A7FC0121E6
:100C40000A2000F0A3FC01210D2000F09FFC0121EF
:100C50000B2000F09BFC01210C2000F097FC0121EF
:100C6000022000F093FC01210E2000F08FFC0121F6
:100C7000072000F08BFC0121082000F087FC0121F7
:100C8000062000F083FC0121142000F07FFC0121EC
:100C9000152000F07BFC0121052000F077FC0820E6
:100CA00000F0E2FB306802F00DF90146032000F08D
:100CB000EBFB3068464E02F005F90146042000F0D7
:100CC000E3FB8021032000F0D1FA8021042000F012
:100CD000CDFA404B404A1A600221032000F056FC36
:100CE0003E4A3F493F4B116018683A680021C0F303
:100CF0004F0811601461A2F81E80A2F81680938B31
:100D000091619BB243F008039383C0F1000E3368F6
:100D1000C2F80CE0022401204FF0380E4FF0400CD6
:100D20009460D07182F806E09480A2F814C01D602F
:100D3000C3F81090A3F81E80A3F816809A8B2A4D52
:100D4000998092B242F008029A839A8BD87192B23B
:100D500022434FF08058D96083F806E099619C6087
:100D60009A83A3F814C0C5F800803B791F4C204D2E
:100D700003F1804303F504334FF04027B22241F2E0
:100D8000320EC7F800E019701A70337903F180430E
:100D900003F50433B12219701A70327953119B0094
:100DA00003F1604302F01F0103F5614310328840F4
:100DB00044F822501860BDE8F88300BF64B2FF1FFA
:100DC00080F00F40C0F00F4058B2FF1F5CB2FF1F11
:100DD00068B2FF1F00A004400203010034900440E9
:100DE000020302007CB2FF1F0C0008E00082FF1F1C
:100DF000890B000084F00F40F8B525480378244A99
:100E0000002BFBD1234B1B68012010707BB9224BB8
:100E10001C6864080BD0214D01EB44040B46288864
:100E20001A8822EA000223F8022B9C42F7D11C4ABE
:100E30001C4B10681C4F01601D681C481679007916
:100E40001B49DFF87CE01B4C05F0E7021A603B68A9
:100E5000194A013B0B6007F580374BF6EF63CEF87C
:100E60000030983700234FF0010E0B60C4F800E00B
:100E70004FF40053114C3B601670107000F08CFB67
:100E80002368C01AB0F57A7FF8D3064B1D60F8BD11
:100E900078B2FF1F74B2FF1F7CB2FF1F64B2FF1F46
:100EA0005CB2FF1F009003400890034068B2FF1F30
:100EB0004C900340A0A004401B80004070B2FF1F74
:100EC00004900340F8B50C4F0C4E0D4D0D4C3846B8
:100ED000002100F08DF832462946384602F02CFAFF
:100EE0002046002100F084F8324629462046BDE81D
:100EF000F84002F021BA00BF5CB2FF1F2087FF1F3D
:100F0000550B000068B2FF1FF8B50C4F0C4E0D4D8D
:100F10000D4C3846002100F06BF832462946384621
:100F200002F00AFA2046002100F062F83246294613
:100F30002046BDE8F84002F0FFB900BF80B2FF1FB5
:100F40002087FF1F550B000088B2FF1FF8B50C4F1C
:100F50000C4E0D4D0D4C3846002100F049F832463C
:100F60002946384602F0E8F92046002100F040F812
:100F7000324629462046BDE8F84002F0DDB900BF00
:100F800090B2FF1F2087FF1F550B000098B2FF1F74
:100F90002DE9F041DFF85480104D114C114F124EE5
:100FA0004046002100F024F82A462146404602F03F
:100FB000C3F93846002100F01BF82A46214638467E
:100FC00002F0BAF93046002100F012F82A46214614
:100FD0003046BDE8F04102F0AFB900BF2087FF1FE7
:100FE000550B0000B0B2FF1FA8B2FF1FA0B2FF1F39
:100FF000F0B572B699B902688AB103790F2B0ED891
:10100000274C218841FA03F5ED070AD503F1007357
:1010100003F59063B2EB431F03D162B6F0BD204CE1
:101020002188002341FA03F212F0010207D00133B4
:10103000102BF7D162B6002203710260F0BD0125CA
:101040009D402943218062B6164E174D174FDFF899
:1010500064E0D9B20171346844F0020434602C6851
:1010600044F002042C60A6F580268224A5F5802594
:1010700003F100733C6003F59063223E243D0C4C69
:101080008EF800105B0131702970217003601A60C6
:101090005A609A60DA601A615A619A61DA61F0BD49
:1010A000B8B2FF1F408004403C80044000800040F4
:1010B0001F8000401A80004003790F2B11D8094A85
:1010C00010B4137072B6084904790A880123A3404A
:1010D00022EA03030B8062B61022002310BC0271C7
:1010E000036070471A800040B8B2FF1F08B5FFF7D1
:1010F000D3FCFFF7D3FC01F03FFAFAE708B5104C38
:1011000008E0236859050DD423681A050FD4236815
:10111000DB0411D423685803F3D500F0E1FB236806
:101120005905F1D501F012FC23681A05EFD501F03D
:10113000A3FC2368DB04EDD501F034FDEAE700BF32
:101140003480044008B5FFF7D9FF00BF014B1022DF
:101150001A80704700200540704700BF094908B554
:101160000B6830B16A461844A2F58052904202D210
:101170000860184608BD02F0EBF80C2303604FF03E
:10118000FF3008BD2487FF1F02F010B910B40F4BC9
:1011900053F8302092F880422CB1012369B182F8D3
:1011A000803010BC704703EBC0035B681A6841B91C
:1011B00022F002021A6010BC704782F8003110BCA5
:1011C000704742F003021A6010BC7047544400009C
:1011D0001C4A02EBC00301295B6811D004291BD013
:1011E00052F83000002280F8802229B1022920D054
:1011F000032922D01A6070474FF480721A6070473A
:1012000052F830004FF4A27280F880121A601A6807
:1012100022F020021A60704752F830104FF4A27288
:10122000012081F880021A601A6842F020021A60D8
:10123000704740F203121A6070474FF481721A60CF
:10124000704700BF5444000030B4054B054D064CB8
:10125000002210211A602A602060196030BC70479B
:1012600014D0034004D0034000D00340282838B5F0
:101270002ED0002904464FDD5F4B1B78012505FA6F
:1012800003F28A4202D8212837D938BD0338C2B2C6
:10129000012A3AD9202C4AD0192C48D0574A126832
:1012A00002FB011222FA03F31D2800F29B80DFE803
:1012B00000F0928B847D9999766F99999999999973
:1012C00099999968615A53994C999999999999451D
:1012D000494B1B780B2B08D90C2B1CBF0C3B19411D
:1012E0000846BDE8384001F003BBC3F10C03994048
:1012F0000846BDE8384001F0FBBA2946FFF746FF33
:101300002946BDE83840FFF763BF3D4A126802FB3B
:10131000011222FA03F3C7E72128B6D80021FFF70C
:1013200035FF20460121BDE83840FFF751BF354A5F
:10133000126802FB011222FA03F3B5E73249334A7D
:101340000B604FF45173136038BD3149314A0B6063
:101350004FF45173136038BD2F49304A0B6040F28F
:101360004443136038BD2E492E4A0B6040F244437B
:10137000136038BD2C492D4A0B6040F24443136082
:1013800038BD2B492B4A0B6040F24443136038BDF3
:1013900029492A4A0B6040F24443136038BD28496A
:1013A000284A0B6040F24443136038BD2649274A5F
:1013B0000B6040F24443136038BD2549254A0B6059
:1013C00040F24443136038BD2349244A0B604FF474
:1013D0005173136038BD2249224A0B604FF4517398
:1013E000136038BD212C3FF650AF7F29D4BF0021B8
:1013F0000121204693E700BF2887FF1F0880034094
:101400000890034008800B4010800B4048A0044027
:1014100018800B404CA004401880034008B00440E2
:101420001080034004B004404080034018C00440D2
:101430003880034014C004402880034010B00440AA
:10144000208003400CB004403080034010C00440B2
:10145000488003401CC0044018900340349004406E
:10146000109003403090044038B1102828BF10205D
:10147000044AC3B2107813707047024A01231078EF
:10148000137070472887FF1F2DE9F8430E468046EA
:101490003249334D304601F007FF47F6122300284A
:1014A0001ABF1D464FF002094FF00109002425FA2A
:1014B00004F001F003FD4FF05E51074601F056FDC8
:1014C0000146304601F004FF30B90134072CEED15B
:1014D000E80901F0F3FC07463146384601F0FAFD11
:1014E0004FF07C5101F038FC01F006FF4FF6FF721F
:1014F0009042A8F1030328BF1046012B29D9B8F167
:10150000170F17D8174B23FA08F303F0010383F0E2
:10151000010223B9B8F1190F0FD0BDE8F883124BBF
:10152000124D13491A6044EAC9042A6008601C601D
:10153000BDE8F883B8F1200FECD10E4B0E4D0F49EA
:10154000002244EAC9041A602A6008601C60BDE8F1
:10155000F8830B4B0B4D0C49F2E700BF001BB74063
:10156000006CDC026006F000008003400480034051
:101570000880034000800B4004800B4008800B4033
:10158000009003400490034008900340212801D8B4
:10159000FFF71EBE704700BF72B60C490C4B0D4AD8
:1015A0001B680868126862B6520102D5322B88BFE8
:1015B00001300949C3F5BB334FF47A72FF33A1FB05
:1015C000031302FB00F000EB93107047BCB2FF1F47
:1015D00018E000E004ED00E0ABAAAAAA2DE9F84368
:1015E000054672B6204F214B214A1B683C681268A1
:1015F00062B6520102D5322B88BF013495B3C3F5D0
:10160000BB331C4EDFF86490DFF86480FF334FF487
:101610007A72A6FB031302FB04F404EB931472B674
:10162000D9F800103A68D8F800E062B6C1F5BB33CB
:10163000FF33A6FB03031EF0806FC4EB93134FF43C
:101640007A7002D0322988BF013200FB0233B3F531
:101650007A7F04D3013D05D004F57A74DFE700F00A
:101660008BFFDCE7BDE8F883BCB2FF1F18E000E0A9
:1016700004ED00E0ABAAAAAAF8B52D4B2D49DFF87E
:10168000D0E0DFF8D0C02C4E2C4D2D4C2D4A2E4FE3
:101690004FF4000018604FF0807018604FF0007039
:1016A00018604FF0806018604FF0006018600020F4
:1016B000086028234BF6FF71CCF80010CEF80030FC
:1016C000336013602B6023603B60B3629362092236
:1016D00045F8242CC4F8D80F05F57F65C7F8D41F4A
:1016E00007F5FF2707F5FA67C6F8F83F2B6006F500
:1016F000FF26C4F8D42F05F5FD2504F5FF24386036
:1017000006F2F4761148316005F5FF6504F5FD64D5
:101710002B602360026001F07BF81920FFF75EFF69
:1017200000F046FE40F21310BDE8F840FFF756BF48
:1017300008E100E00480034014800340248003405B
:101740002C8003401C8003403480034000800B4009
:101750000C80034008800340431E032B14D872B64C
:101760000A4951F8230068B170B4094C058834F86F
:101770001320466841F82360521B24F8132062B6F8
:1017800070BC704762B670470020704718B3FF1FE7
:1017900098B5FF1F30B472B62B4A13781D0706D5D3
:1017A0002A4B196A002936D0996A002941D053780A
:1017B0001C0706D5254B196C00293ED0996C0029D1
:1017C00039D09378190705D5204B196E002936D0EA
:1017D000996E89B1D3781B0707D51C4BD3F88020AD
:1017E0007AB3D3F8882011213AB162B6184B00229F
:1017F0001A7030BC00F068BE0D21154C154D2278D2
:1018000043F8315003EBC1030830013A58602270AD
:1018100062B630BC704704220D4C0F4D217843F85E
:10182000325003EBC20308304A1E5860227062B681
:10183000EFE70521E1E70921DFE70822ECE70C22C9
:10184000EAE71022E8E700BF644500000080FF1FC0
:1018500095B3FF1FC800400088004000431E032BC3
:101860001DD81B4A400140F0100030B4104472B63D
:10187000184CE25C032A1BD8DFE802F002121517AD
:1018800003220D88E25410F0080F14BFC8238823E8
:1018900043EA054308310360416062B630BC7047DB
:1018A00008300222EDE70522EBE708300422E8E7E2
:1018B000094A52F8230038B1084A52F8230041601F
:1018C00042F8231062B6E9E742F82310034AF7E72B
:1018D0000080FF1FA4B3FF1F6CB3FF1F7CB3FF1F6B
:1018E0002DE9F04FDFF80CB3DFF80CA387B044E02C
:1018F000AB4F4FEA930807EBC809013ED9F8042023
:1019000003F00803F6B2A2F1080003F0FF04002B75
:1019100040F0028157F838301B0C99B222F8081CAD
:10192000002B00F0F0809F4B22F8064C42F8044C4C
:1019300053F82620002A00F0C5829B4D55F826302A
:1019400058609A4C45F8260034F81630194424F8AB
:10195000161000F099FD002800F0AD82944A954BD6
:1019600019F0080F00F1080018BF1346C9F8040069
:1019700047F8383008238BF800309BF80040E4B279
:1019800061071AD58C4B1B78A3B18C490A7802F0F9
:10199000FF0322B1013BDBB20B7003B900BE8849E3
:1019A0000A7802F0FF032AB1013BDBB20B70002B77
:1019B00000F0578204238BF8003004F0080303F092
:1019C000FF02002B00F0CC809AF80030DBB21E0939
:1019D0008ED19C08DFF8C89159F8342009EBC40176
:1019E000C2F38302013A49680C2A00F28880DFE8DA
:1019F00002F07C7C868686868686478686860700F9
:101A00000868704D4A68704F704E286081B240F28D
:101A10008160674B6A604FF0010E0022814249F8F5
:101A200034303A60C9F81020C9F8182086F800E070
:101A30005B4C00F2E380B1F5D06F80F04683B1F5E6
:101A4000817F00F0FC8200F28D82802900F0778394
:101A5000822940F0FA82A98801F07F01042900F26E
:101A6000F4825B485B4C8900084422706270027803
:101A7000930740F1588484F800E04FF0020E42E3EF
:101A8000514F3A6832B3544B504E54491888347809
:101A90000D784028864645F0020828BF4FF0400EDA
:101AA000002C84F001043470CEEB00000CBF8824BD
:101AB000C82409EBC80680B285F0010544EA0E444B
:101AC0007260188049F8384072440D70002800F0A8
:101AD00045813A603B4B1A88B2F5A06F0FD10021C7
:101AE0009A7859703E4B1A7009E0364A108842F2D3
:101AF0002102904200F037812D4A49F83420394ABA
:101B00000123137036E72A4A2A4B19F0080F18BF31
:101B1000134647F838302DE700F0D6FC324A3349F7
:101B200052F82630002B00F0D18158688C5D42F8C5
:101B3000260003F10802C9F80420032C05D8DFE8C9
:101B400004F02C02292602228A551A8819F0080F5F
:101B50000CBF8823C82343EA024347F8383009E71B
:101B6000E00700F18181210600F1F281A20706D58C
:101B70001F4A204913780220DBB213700870E30675
:101B800002D51C4B10221A7007B0BDE8F08F04225A
:101B90008A55DAE705228A55D7E703228A55D4E722
:101BA0000080FF1F18B3FF1FC4B2FF1F98B5FF1FAF
:101BB000C800400088004000A0B3FF1F29B3FF1FEA
:101BC000A8B3FF1F8CB3FF1FC0B2FF1F28B3FF1FB6
:101BD000C020074098B3FF1FD4B2FF1F94B3FF1F6C
:101BE00098200740942007406CB3FF1FA4B3FF1F49
:101BF00088200740802007409020074042F22100C3
:101C0000814200F02A8100F2D880B1F5086F00F01F
:101C10007682B1F5106F40F01882226AB349A87835
:101C20000870120600F13A83D9F82820B04913064B
:101C300000F10C83D9F83020AD49150600F101837D
:101C4000D9F83820AA49140600F1F682D9F84020C4
:101C5000A749100600F14A83D9F84820A449120682
:101C600000F13F83D9F85020A149130600F13483D5
:101C7000D9F858209E49150600F12983D9F860202B
:101C80009B49140600F11E83D9F868209849100674
:101C900000F11383D9F870209549120600F10883EA
:101CA000D9F878209249130600F1FD82D9F88020F6
:101CB0008F49150600F13183D9F888208C49140624
:101CC00000F12583D9F890208949100600F1198385
:101CD000D9F898208649120600F10D838548864A76
:101CE000864901908648874D874C049700230596C6
:101CF000029580460F4616461D460394306828B16B
:101D0000446800F0E1FB2046002CF9D10023336049
:101D1000029B38681A46002342F8253028B14468EF
:101D200000F0D2FB2046002CF9D100223A60019A43
:101D300098F800301146002241F8042B039A0191D3
:101D4000023B4FF0000122F81510032B00F22B810B
:101D5000DFE813F07001250170012501BEF1400F8D
:101D600018BF0022B5E6694A0D78487815705070A2
:101D70008D78C8789570D07010680D7915718628A7
:101D80004D7989795571917100F09B816049614E5F
:101D90000A78307882F00105002842F002020D70C6
:101DA0000CBF8821C82149F8321009EBC20280F02B
:101DB00001000021307051609EE642F221208142F4
:101DC00040F0CB81544B554C5549A8781D6825608F
:101DD000CDF804E008700020029080468446044656
:101DE0004B490D7845F0020E09EBCE030393019B9E
:101DF000002B039B5C600CBF8824C82444EA0803C2
:101E000085F0010449F83E3032700C70DFF8E0E0F4
:101E1000404BDFF8FC80002840F01E81BCF1400FF1
:101E20001BD144F0020C09EBCC03029CDFF8C0E0AC
:101E30005C60002A40F02681020442F088029DF88E
:101E400004304EF83C20044433700D702346402883
:101E500003D10020334A3B601080334A01231370C2
:101E60004DE600F065FBA5E5214B2F4828491A6196
:101E70004FF0020E80F800E02C4F0A702C491960D8
:101E800099602C4E2C4D2D4C9A610D213970FF21FB
:101E90003170DFF8B8E029702270294D294A8EF898
:101EA00000109F27012406F8047C5D600470DA604E
:101EB00007B0BDE8F08F244A47F8380013780133A3
:101EC000137057E543F826000E4D3AE58B5D032B62
:101ED00000F2F08001A252F823F000BF7519000053
:101EE00075190000991F0000931F0000A0B3FF1F89
:101EF0000080FF1F7CB3FF1F18B3FF1F6CB3FF1FD1
:101F0000A4B3FF1FC4B2FF1F98B5FF1FA0B5FF1FEA
:101F100094B3FF1F28B3FF1FBCB2FF1FA8B5FF1F5C
:101F2000B4B3FF1FD4B2FF1F94200740C020074066
:101F30008800400088200740802007409820074004
:101F4000D8B2FF1F2CB3FF1F95B3FF1F8C20074093
:101F5000C149C24B80220D2008701A70A2077FF57C
:101F60000EAE05E640F20232914240F0EE80A988C2
:101F700001F07F01042968D86A88002A65D1B64833
:101F8000CDF804E089000844017841F002010170B5
:101F900021E701238B55EDE400238B55EAE44FF054
:101FA000010388F800300135042D06F1040607F11D
:101FB000040708F101087FF4A1AEA94CA94B2278CF
:101FC000A94D049F059E002129701A70130700F186
:101FD00005816278A549DFF8A0820A7010074FF0EA
:101FE0000001C9F83010C9F8381000F1E080A049AC
:101FF000A2780A700021C9F85010C9F858101107CA
:10200000DFF8748200F10181E2789A499A4C0A70F3
:1020100000211207C9F87010C9F8781000F1B080DB
:1020200033780193002183F00102C9F89010C9F8B8
:102030009810D0E64FF0000388F80030B3E7A98885
:1020400001F07F01042940F28D80834A0F23137031
:102050008A4A0123137052E540287FF6E2AE44F02D
:1020600002040EEBC401029E4E60BAB19DF804104A
:10207000834A19703346403888F8005040334EF890
:102080003420E7E69DF8043033700204029B0D70A3
:1020900042F0C80203444EF83C20D8E69DF80410F4
:1020A0001970029B774A88F80050403840334EF848
:1020B0003420CFE619F0080F0CBF022303238B5501
:1020C00058E4714A0F21117060E6704A5468002C80
:1020D000BBD06888B5F804E003E00C325468002CEB
:1020E000B3D013888342F8D153887345F5D1000AE1
:1020F00003280CBF94F800E0B2F808E003E0644A5B
:10210000644C12782270E888704580F03F81624903
:102110000D784028844645F0020E28BF4FF0400C51
:1021200004EB0C0309EBCE02029301235460CCEBC9
:1021300000004FEA0C4800220193C8245EE6554C8B
:102140004FF0020E22706270DDE7B1F5A06F7FF4F0
:102150007CAF0123002201933DE642F221329142FD
:10216000F7D072E76A88002A7FF46FAF3A48CDF85B
:1021700004E089000844017821F0020101702AE698
:1021800000F082F9002800F0EF8008303D4AC4F8E2
:102190008400C4F8802000F077F9002800F0DE8089
:1021A0000830374AC9F88C00C9F8882038E700F0B1
:1021B0006BF9002800F0C0800830324AC8F84400AB
:1021C000C8F8402000F060F9002800F0AF80083027
:1021D0002B4AC9F84C00C9F8482008E700F054F928
:1021E000002800F0CD800830264AC9F82400C9F83C
:1021F000202000F049F9002800F0BC800830204A77
:10220000C9F82C00C9F82820E3E600F03DF90028C1
:1022100000F09E8008301B4AC8F86400C8F86020AF
:1022200000F032F9002800F08D800830144AC9F817
:102230006C00C9F86820E7E6C86B083800F044F97C
:1022400004E5486B083800F03FF9F9E4C86A08383B
:1022500000F03AF9EEE400BFC020074080200740BC
:1022600064450000C420074095B3FF1FC820074005
:10227000CC200740D02007400080FF1F942007405B
:10228000C80040008800400029B3FF1F68450000D7
:10229000A0B3FF1F98B3FF1F94B3FF1F606A0838F5
:1022A00000F012F9C0E4C86F083800F00DF9FDE441
:1022B000486F083800F008F9F2E4C86E083800F0FA
:1022C00003F9E7E4486E083800F0FEF8DCE4C86D76
:1022D000083800F0F9F8D1E4486D083800F0F4F857
:1022E000C6E4C86C083800F0EFF8BBE4486C083866
:1022F00000F0EAF8B0E4D1F89C00083800F0E4F807
:10230000ECE4D1F89400083800F0DEF8E0E4D1F80D
:102310008C00083800F0D8F8D4E4D1F884000838EC
:1023200000F0D2F8C8E44FF0020EECE62A78C9F8C3
:10233000480001322A705AE62A78C8F84000013273
:102340002A703FE72A78C9F8680001322A705BE6F4
:102350002A78C8F8600001322A7061E72A78C9F843
:10236000880001322A705BE62A78C4F880000132C6
:102370002A7010E72A78C9F8280001322A7028E666
:102380002A78C9F8200001322A7032E7BEF1400FE6
:10239000F44628BF4FF0400C04EB0C0302930123DA
:1023A000CCEB0E004FEA0C480022019318E500BF69
:1023B000F8B500F063FC294B29482A4C2A4F2B4DD5
:1023C000DFF8BCC0DFF8BCE0294E00221A605A607A
:1023D0009A60DA601A615A619A61DA611A625A6225
:1023E0009A62DA621A635A639A63DA631A645A6405
:1023F0009A64DA641A655A659A65DA651A665A66E5
:102400009A66DA661A675A679A67DA67C3F88020AD
:102410000168C3F8842041F480210160C3F30721DF
:102420002170C3F30740134938701B0E2B70FF2334
:102430008CF80030104D8EF8003010480B700123DE
:10244000337084F8642070264FF40074102207F86B
:102450002C3C2E70046081F8F820F8BD0080FF1F2E
:10246000348004409C200740B0200740B42007403F
:10247000942007401020074049E400E008E100E014
:10248000802007408820074072B60D480268B2FAE3
:1024900082F30B2B10DC4FF00041D94022EA0102FD
:1024A000026062B6074803EBC303DB00C2180021D9
:1024B000C15010465160704762B60020704700BF9F
:1024C0002C87FF1FBC83FF1F0D4B0E4AC31AA2FBB4
:1024D00003231B090B2B0CD80B4A127852B972B686
:1024E0000A484FF00041026821FA03F31A430260E0
:1024F00062B67047064A1278002AF0D0FFF74AB950
:10250000BC83FF1F398EE33895B3FF1F2C87FF1F55
:10251000A0B3FF1F044B054A1B6890881BB11A88A3
:102520005B88D31A18447047B0B3FF1F98B5FF1FDC
:1025300038B50E4B1B7873B90D4C216861B103F0AF
:10254000FF054B880B800420FFF788F9256038BD14
:10255000084B01221A7038BDFFF796FF0028F7D00C
:102560000146BDE838400420FFF778B9A9B3FF1F42
:10257000ACB3FF1FA8B3FF1F38B5224C237803B1BB
:1025800038BD01232370FFF7C5FF70BB00F0CEF903
:1025900040BB00F061FA10BB00F0F4FAE0B9002390
:1025A0002370EFF30583002BEAD1EFF3108172B6AD
:1025B000154B1868E0B1154C2278CAB945691D6001
:1025C00001232370C5B1AA6101B962B60025457720
:1025D000836898472570D3E700F018F9DFE700F02B
:1025E00013F9D9E700F00EF9D3E700F089FBCDE746
:1025F0000029C5D162B638BD054B1D600029E5D163
:10260000E3E700BFB5B3FF1FC8B3FF1FCCB3FF1F85
:10261000C4B3FF1F10B4EFF3108272B6437F33B917
:10262000017F012907D003290FD00123437702B985
:1026300062B610BC7047124C2168A1B111494361C8
:102640000B68836108605861EFE70F4C216881B126
:102650000E4943610B688361086058610C4B4FF071
:1026600080511960E1E7074B41618161206018608A
:10267000DBE7064B4161816120601860EEE700BF37
:10268000C8B3FF1FC4B3FF1FB8B3FF1FBCB3FF1F06
:1026900004ED00E010B4047F4160022CC26002D05F
:1026A00010BCFFF7B7BF836810BC184770B5EFF3D5
:1026B000108272B60C4C206880B10C4E0025436924
:1026C000236073B19D6102B962B64577836898470C
:1026D000EFF3108272B620680028F0D102B962B61A
:1026E00070BD3360EFE700BFB8B3FF1FBCB3FF1F7F
:1026F000FFF7DCBF184A30B41468002C27D00368F9
:1027000021688B420ED2CB1A00218460C160236005
:10271000E06010600223037530BC704711688B4283
:10272000144608D3A2685B1A0360002AF6D18260BF
:10273000C460A060EEE7D268C2608460E060C568F3
:10274000CB1A0222A8602360027530BC70478460F7
:10275000C4601060DEE700BFC0B3FF1FF8B5224EB3
:1027600034682CB32368002B3AD1204F1D4604E077
:102770003468ECB12368002B32D1A36803B1DD606B
:1027800020693360036825751B68BB4221D1037F34
:102790004560022BC46020D0FFF73CFF6368002B2C
:1027A000E6D023602046FFF7A5FF3468002CE1D176
:1027B000EFF3108372B60E4A00211068116003B95E
:1027C00062B628B18468FFF795FF20460028F9D14A
:1027D000F8BD224600219847E0E783689847DDE787
:1027E000013B2360E4E700BFC0B3FF1F9526000054
:1027F000D0B3FF1F024A136801331360FFF7AEBF67
:10280000BCB2FF1F704700BF704700BF704700BFDA
:1028100030B42948294A2A4B2A4D6024E12104700A
:1028200011701B78284C082B30D00A2B27482849D8
:1028300037D00C2B0CBF35223D2212232A60236097
:1028400002600B60234B24491B78244ABBB101234F
:102850000B601360224B23491B78234A012B26D996
:10286000042B0FD9082B1ED9102B94BF8623872346
:102870000B6013601D4B01221A7030BC70470B6057
:102880001360E7E784230B601360F3E700F58E2005
:102890000F490830012213232A60236002600B6075
:1028A000D0E73922F7E785230B601360E2E7802346
:1028B0000B601360DEE700BF0040074001400740A7
:1028C0003087FF1F08B003400CB0034008B00B4036
:1028D0000CB00B40D5B3FF1F20B0034020B00B401D
:1028E0003187FF1F24B0034024B00B40D4B3FF1F37
:1028F0000A4A0B49136843F4805313600B7843B9B9
:10290000084BC0221A70084B80F30C0000B21880EC
:102910007047044B80221A70F5E700BF2C800440FA
:10292000D5B3FF1F21C00C4000C00C40054A064B28
:1029300010781B78C0B2DBB2984238BF4030C01A62
:10294000704700BFDCB3FF1FDDB3FF1FF0B4384B8F
:102950001A7912F0300F2CD072B6997D01F0FF0277
:1029600000293DD062B6334F334938780D78334E65
:102970001C46C0B2EDB2431C402BE17928BF0023B6
:10298000AB4202F1FF32C9B21CBFF154184612F03B
:10299000FF02F0D12A4B1B68C2B23A704BB1A84279
:1029A00036BFC5F14005401B40192728C4BF01228E
:1029B0001A701F49CA78D2B2150616D452060DD520
:1029C0001B4B1B795B0609D51E4B1F491B68002258
:1029D0000A7003B11A70164B3C22DA70F0BC7047D3
:1029E0004022D9795A7462B6E3E70B791C06E5D523
:1029F000164B174E1C783378E4B2DBB29C420ED0F3
:102A0000144D01E0A3420AD00133402B28BF00231C
:102A10000879E85CC0B2C871087D0728F2D9DBB23A
:102A2000034933700B79180644BF7C23CB70C5E78C
:102A300000A00640DCB3FF1FDDB3FF1F20B4FF1F63
:102A4000D8B3FF1F64B4FF1F60B4FF1F68B4FF1F3B
:102A500061B4FF1FE0B3FF1F054A064B10781B78D7
:102A6000C0B2DBB2984238BF4030C01A704700BFD6
:102A7000DCB4FF1F71B4FF1FF0B4384B1A7912F0A9
:102A8000300F2CD072B6997D01F0FF0200293DD0A5
:102A900062B6334F334938780D78334E1C46C0B296
:102AA000EDB2431C402BE17928BF0023AB4202F179
:102AB000FF32C9B21CBFF154184612F0FF02F0D128
:102AC0002A4B1B68C2B23A704BB1A84236BFC5F15F
:102AD0004005401B40192728C4BF01221A701F4916
:102AE000CA78D2B2150616D452060DD51B4B1B79E7
:102AF0005B0609D51E4B1F491B6800220A7003B1F3
:102B00001A70164B3C22DA70F0BC70474022D9791B
:102B10005A7462B6E3E70B791C06E5D5164B174EDF
:102B20001C783378E4B2DBB29C420ED0144D01E045
:102B3000A3420AD00133282B28BF00230879E85C80
:102B4000C0B2C871087D0728F2D9DBB203493370DF
:102B50000B79180644BF7C23CB70C5E700B0064054
:102B6000DCB4FF1F71B4FF1F9CB4FF1F6CB4FF1FC8
:102B7000E0B4FF1F70B4FF1FE4B4FF1FDDB4FF1FFC
:102B800074B4FF1F054A064B10781B78C0B2DBB245
:102B9000984238BF4030C01A704700BFECB4FF1FE6
:102BA000EDB4FF1F30B42B4B1A7994061FD52A4879
:102BB000DA790378294901333F2B0978C8BF00230C
:102BC0008B42D2B203D0264CD9B2E2540170254ACE
:102BD000116861B1244A1278D2B2934236BFC2F171
:102BE00040029B1A9B18272BC4BF01230B70194A64
:102BF000D378DBB2180611D45A060DD5154B1B79C4
:102C00005B0609D5194B1A491B6800220A7003B1EB
:102C10001A70104B2C22DA7030BC704711790906FB
:102C2000EAD5144910480C780178C9B28C420DD00D
:102C30004A1C272A84BF00210A460F4D054C98BF25
:102C4000D1B2AA5CD2B2E2710170D5E76C21D17029
:102C5000D2E700BF00C00640ECB4FF1FEDB4FF1F79
:102C600018B5FF1FE8B4FF1F59B5FF1F5CB5FF1F64
:102C700058B5FF1F60B5FF1FF0B4FF1F70B584B0DB
:102C800072B6194B194D1A48702241260F24802123
:102C90001A702E701A460470197013781B06FCD532
:102CA000144B186862B6144B144C984298BF00EB52
:102CB000800001A998BF40000A2200F023F801A972
:102CC0002046002311F8012B01333AB10A2B20F8DA
:102CD000022FF7D11623237004B070BD5B00DBB266
:102CE000237004B070BD00BF000002400700024026
:102CF00006000240080002407F969800C087FF1F30
:102D0000704700BFF0B44D1E2E46002400E0013491
:102D1000B0FBF2F302FB1300092800F130078ABF71
:102D20003730F8B2C0B206F8010F1846002BEED1CA
:102D30000A1953704CB1107815F8016F28700133DF
:102D4000E01A834202F80169F5DB0846F0BC7047DF
:102D500080F0004002E000BF81F0004142001FBF50
:102D60005FEA410392EA030F7FEA226C7FEA236C59
:102D70006AD04FEA1262D2EB1363C1BFD21841404E
:102D800048404140B8BF5B42192B88BF704710F0E4
:102D9000004F40F4000020F07F4018BF404211F087
:102DA000004F41F4000121F07F4118BF494292EAEF
:102DB000030F3FD0A2F1010241FA03FC10EB0C001B
:102DC000C3F1200301FA03F100F0004302D54942A8
:102DD00060EB4000B0F5000F13D3B0F1807F06D355
:102DE00040084FEA310102F10102FE2A51D2B1F14D
:102DF000004F40EBC25008BF20F0010040EA030042
:102E00007047490040EB000010F4000FA2F10102EE
:102E1000EDD1B0FA80FCACF1080CB2EB0C0200FA78
:102E20000CF0AABF00EBC25052421843BCBFD040C6
:102E30001843704792F0000F81F4000106BF80F440
:102E400000000132013BB5E74FEA41037FEA226C03
:102E500018BF7FEA236C21D092EA030F04D092F0CE
:102E6000000F08BF0846704790EA010F1CBF002002
:102E7000704712F07F4F04D1400028BF40F000405F
:102E8000704712F100723CBF00F50000704700F07F
:102E9000004343F0FE4040F4000070477FEA2262A6
:102EA00016BF08467FEA23630146420206BF5FEA77
:102EB000412390EA010F40F4800070474FF0000377
:102EC00004E000BF10F0004348BF40425FEA000C3E
:102ED00008BF704743F0964301464FF000001CE0E6
:102EE00050EA010208BF70474FF000030AE000BF3C
:102EF00050EA010208BF704711F0004302D540427A
:102F000061EB41015FEA010C02BF844601460020EB
:102F100043F0B64308BFA3F18053A3F50003BCFA06
:102F20008CF2083AA3EBC25310DB01FA02FC6344B3
:102F300000FA02FCC2F12002BCF1004F20FA02F2BA
:102F400043EB020008BF20F00100704702F12002AD
:102F500001FA02FCC2F1200250EA4C0021FA02F20E
:102F600043EB020008BF20EADC7070474FF0FF0C13
:102F70001CEAD0521EBF1CEAD15392EA0C0F93EA0E
:102F80000C0F6FD01A4480EA010C400218BF5FEAB0
:102F900041211ED04FF0006343EA501043EA511123
:102FA000A0FB01310CF00040B1F5000F3EBF49001D
:102FB00041EAD3715B0040EA010062F17F02FD2A21
:102FC0001DD8B3F1004F40EBC25008BF20F0010004
:102FD000704790F0000F0CF0004C08BF49024CEA1B
:102FE000502040EA51207F3AC2BFD2F1FF0340EAAD
:102FF000C250704740F400004FF00003013A5DDC1E
:1030000012F1190FDCBF00F000407047C2F100025E
:10301000410021FA02F1C2F1200200FA02FC5FEA4B
:10302000310040F1000053EA4C0308BF20EADC7095
:10303000704792F0000F00F0004C02BF400010F407
:10304000000F013AF9D040EA0C0093F0000F01F0B4
:10305000004C02BF490011F4000F013BF9D041EAD6
:103060000C018FE70CEAD15392EA0C0F18BF93EAD8
:103070000C0F0AD030F0004C18BF31F0004CD8D102
:1030800080EA010000F00040704790F0000F17BF89
:1030900090F0004F084691F0000F91F0004F14D0CF
:1030A00092EA0C0F01D142020FD193EA0C0F03D127
:1030B0004B0218BF084608D180EA010000F000402A
:1030C00040F0FE4040F40000704740F0FE4040F405
:1030D000400070474FF0FF0C1CEAD0521EBF1CEAA4
:1030E000D15392EA0C0F93EA0C0F69D0A2EB0302C2
:1030F00080EA010C49024FEA402037D04FF080535C
:1031000043EA111143EA10130CF000408B4238BF20
:103110005B0042F17D024FF4000C8B4224BF5B1A2E
:1031200040EA0C00B3EB510F24BFA3EB510340EA7C
:103130005C00B3EB910F24BFA3EB910340EA9C002A
:10314000B3EBD10F24BFA3EBD10340EADC001B019A
:1031500018BF5FEA1C1CE0D1FD2A3FF650AF8B423E
:1031600040EBC25008BF20F0010070470CF0004C4B
:103170004CEA50207F32C2BFD2F1FF0340EAC25076
:10318000704740F400004FF00003013A37E792F037
:10319000000F00F0004C02BF400010F4000F013A95
:1031A000F9D040EA0C0093F0000F01F0004C02BF90
:1031B000490011F4000F013BF9D041EA0C0195E7F9
:1031C0000CEAD15392EA0C0F08D142027FF47DAF92
:1031D00093EA0C0F7FF470AF084676E793EA0C0F82
:1031E00004D14B023FF44CAF08466EE730F0004C80
:1031F00018BF31F0004CCAD130F000427FF45CAF10
:1032000031F000437FF43CAF5FE700BF4FF0FF3C7D
:1032100006E000BF4FF0010C02E000BF4FF0010CD0
:103220004DF804CD4FEA40024FEA41037FEA226C99
:1032300018BF7FEA236C11D001B052EA530C18BFBB
:1032400090EA010F58BFB2EB030088BFC81738BF20
:103250006FEAE17018BF40F0010070477FEA226C0E
:1032600002D15FEA402C05D17FEA236CE4D15FEA0A
:10327000412CE1D05DF8040B704700BF844608463E
:103280006146FFE70FB5FFF7C9FF002848BF10F1FF
:10329000000F0FBD4DF808EDFFF7F4FF0CBF012044
:1032A00000205DF808FB00BF4DF808EDFFF7EAFFCE
:1032B00034BF012000205DF808FB00BF4DF808ED89
:1032C000FFF7E0FF94BF012000205DF808FB00BF7E
:1032D0004DF808EDFFF7D2FF94BF012000205DF804
:1032E00008FB00BF4DF808EDFFF7C8FF34BF012011
:1032F00000205DF808FB00BF42000ED2B2F1FE4F85
:103300000BD34FF09E03B3EB126209D44FEA0023B4
:1033100043F0004323FA02F070474FF0000070477B
:1033200012F1610F01D1420202D14FF0FF3070471C
:103330004FF00000704700BF0B460146184600F0F2
:1033400001B800BF13460A460146022000F052BBF6
:10335000014B1868704700BF008CFF1F70B50F4EFF
:103360000F4D761BB61018BF002405D0013455F858
:10337000043B9847A642F9D10A4E0B4D761B01F04B
:103380001FF9B61018BF002406D0013455F8043BCD
:103390009847A642F9D170BD70BD00BFCC45000072
:1033A000CC450000E8450000CC450000024B01463A
:1033B000186800F003B800BF008CFF1F2DE9F04F24
:1033C00001F10B05162D83B0064640F29F8035F0C3
:1033D000070500F1BF80A94200F2BC8000F0F4FABA
:1033E000B5F5FC7FC0F09C826B0A00F0BA80042B1C
:1033F00000F28381A80900F1390E4FEA4E033830FC
:10340000C44F07EB8303A3F108015C68A14207D115
:10341000ACE0002A80F2AC80E468A14200F0A68013
:10342000636823F003035A1B0F2AF2DDB9493C6994
:1034300001F1080E744500F0B381636823F00303C3
:103440005A1B0F2A00F39981002AC1F814E0C1F831
:1034500010E080F29E80B3F5007F80F06781DB088A
:1034600003F1010C01229B1002FA03F34A6851F8A0
:103470003C80C4F8088001EBCC091A43A9F1080389
:10348000E3604A6041F83C40C8F80C4083100124D6
:103490009C40944200F28A80144206D120F003003E
:1034A0006400144200F10400FAD007EBC009CC46D6
:1034B0008046DCF80C108C4507D173E1002A80F2BD
:1034C0008181C9688C4500F06D814B6823F003034E
:1034D0005A1B0F2AF2DD0C46D1F80CC054F8088FA5
:1034E0004B1945F001054D6042F00101C8F80CC0D0
:1034F0003046CCF808807B613B61C3F80CE0C3F830
:1035000008E059609A5000F061FA1FE0102921D8B4
:1035100000F05AFA1025062302207E4F07EB8303A2
:10352000A3F108025C68944200F045816368E16899
:10353000A56823F00303234430465A68E96042F04B
:1035400001028D605A6000F041FA0834204603B051
:10355000BDE8F08F00240C232046336003B0BDE8A3
:10356000F08F80234FF0400E3F2049E770465DE723
:103570002344E1685A68A56842F00102E9603046D8
:103580008D605A6000F022FA0834204603B0BDE88E
:10359000F08F234430465A6842F001025A6000F02E
:1035A00015FA0834204603B0BDE8F08FBC686368A4
:1035B00023F00308A84504D3C5EB08030F2B00F341
:1035C0008C80554BDFF860911A68D9F800300133D0
:1035D0002A4404EB080A00F0608102F580520F32A1
:1035E00022F47F6222F00F0211463046019200F071
:1035F000EFF9B0F1FF3F8346019A00F05881824510
:1036000000F2FC80454B1968DA451144196000F05E
:103610005381D9F80000DFF810E101301BBFCAEB7D
:103620000B0A5144CEF800B019601BF0070100F0FE
:103630001781C1F10800C1F58051834408315A4413
:10364000C2F30B02C2EB010949463046019300F078
:10365000BFF9431C019B00F03F81CBEB00024A44C1
:1036600042F001021968C7F808B04944BC42CBF8DF
:1036700004201960DFF8A49016D0B8F10F0F40F2C3
:10368000FD806268A8F10C0323F00703E01802F044
:1036900001024FF0050E1A430F2B6260C0F804E0E0
:1036A000C0F808E000F21C811D4BBC681A6891420A
:1036B00088BF19601B4B1A689142626888BF196005
:1036C00022F003029542A2EB050301D80F2B04DC84
:1036D000304600F07BF9002438E7621943F001031B
:1036E00045F0010565603046BA60536000F06EF940
:1036F0000834204603B0BDE8F08F142B71D9542B49
:1037000000F2A480280B00F16F0E4FEA4E036E30DA
:1037100076E600BF048CFF1F6CB5FF1F70B5FF1F5E
:1037200068B5FF1F64B5FF1F1090FF1F5A0A042AD7
:103730005ED9142A00F2B38002F15C0149005B32C9
:1037400007EB810C57F82110DFF8DC81ACF1080C95
:103750008C4500F088804A6822F00302934202D22E
:1037600089688C45F7D1D1F80CC07A68C4F80CC0D0
:10377000A160CCF80840CC6088E6631942F00107EC
:1037800045F00105656030464B610B61C3F80CE004
:10379000C3F808E05F609A50083400F017F9D5E6E6
:1037A0004A6873E608F1010818F0030F0CF1080CE1
:1037B0007FF47FAE30E0DC68A34208BF02303FF404
:1037C00035AEB3E60B440C465A68C96854F8085F36
:1037D00042F001025A603046E9608D6000F0F6F870
:1037E000B4E603F15C0E03F15B004FEA4E0307E61B
:1037F0009A0902F1390149003832A1E7BC424A4B2B
:103800003FF400AF9C68626822F003025AE759F85F
:103810000839994540F0828010F0030F00F1FF3025
:10382000F5D17B6823EA04037B6064009C423FF689
:10383000BDAE002C3FF4BAAE1C4240467FF435AE1C
:1038400064001C4200F10400FAD02EE6B3F5AA7F12
:1038500018D8E80B00F1780E4FEA4E037730CFE529
:103860004FF48051EBE60121D8F80430921001FAB0
:1038700002F21A43C8F80420614677E70123CBF827
:10388000043025E740F25452934220D8A80C00F1AE
:103890007D0E4FEA4E037C30B2E51032A4E6542A86
:1038A00026D81A0B02F16F0149006E3248E7BC6856
:1038B000626822F0030205E7CAF30B0000287FF4D8
:1038C000A8AE4244BB6842F001025A60ECE6FE2317
:1038D0004FF07F0E7E2093E501224FF00009C1E6F4
:1038E00004F10801304600F049F9D9F80010DBE690
:1038F000B2F5AA7F05D8DA0B02F1780149007732D8
:103900001EE740F254518A4205D89A0C02F17D011B
:1039100049007C3214E7FE217E2211E77B6884E7B0
:10392000E808431C5B00F8E5048CFF1F70B48407B3
:1039300046D0541E002A41D0CDB2034602E0621E9A
:10394000E4B3144603F8015B9A07F8D1032C2ED98F
:10395000CDB245EA05250F2C45EA054519D903F1F5
:1039600010022646103E0F2E42F8105C42F80C5C06
:1039700042F8085C42F8045C02F11002F2D8A4F1AB
:10398000100222F00F0204F00F041032032C134433
:103990000DD91E462246043A032A46F8045BFAD89B
:1039A000221F22F003020432134404F003042CB15A
:1039B000C9B21C4403F8011BA342FBD170BC704781
:1039C00014460346C2E700BF704700BF704700BF00
:1039D00038B5074C0023054608462360FDF7BEFBBB
:1039E000431C00D038BD2368002BFBD02B6038BDB2
:1039F000ACB5FF1F2DE9F047254C2568D5F84841A7
:103A00000646884692469946C4B360681F2817DC6C
:103A1000431C76B104EB80050122C5F888A0D4F8D8
:103A2000881182401143022EC4F88811C5F808910C
:103A30001ED00230636044F820800020BDE8F0878B
:103A4000144B03B34FF4C870FFF7B0FC0446D0B179
:103A5000D5F84831002780E88800C5F84841384645
:103A60000123C4F88871C4F88C71002EE1D0D1E72D
:103A7000D4F88C110A43C4F88C21DAE705F5A67452
:103A8000C5F84841C1E74FF0FF30BDE8F08700BFFF
:103A9000BC450000AD330000024B13B1024800F0FA
:103AA00005B8704700000000B93A00000023014645
:103AB0001A461846FFF79EBF38B5074D074C2C1B1A
:103AC000A41005D0013C55F8043D9847002CF9D1CD
:103AD000BDE8384000F088BD000000000000000094
:103AE000F8B5234F0C460646FFF76EFFBB685D68CE
:103AF00025F00305291B01F6EF7121F47F6121F008
:103B00000F01A1F58054B4F5805F07DB002130463A
:103B1000FFF75EFFBB682B44984204D03046FFF7A6
:103B200055FF0020F8BD61423046FFF751FF0130DC
:103B30000DD0104BBA6819682D1B45F001053046B1
:103B4000091B55601960FFF741FF0120F8BD0021F6
:103B50003046FFF73DFFBA68831A0F2BDEDD064CB7
:103B60000449246843F00103001B53600860D5E753
:103B7000048CFF1F70B5FF1F1090FF1F002945D058
:103B80002DE9F0410D468046FFF71EFF55F8047CF5
:103B90006A4927F00103A5F10804E2188E6850680D
:103BA000B24220F0030062D0FE0750600BD455F8FB
:103BB000087CE41B01F1080EA56875453B446FD0F5
:103BC000E768EF60BD6015186D68ED0742D543F0FA
:103BD00001026260E350B3F5007F18D2DB085A1C83
:103BE0004D6851F83270A76001209B1000FA03F372
:103BF00001EBC2001D430838E0604D6041F83240DF
:103C0000FC604046BDE8F041FFF7E0BE70475A0A4D
:103C1000042A53D89A0902F139077F0002F13805C6
:103C200001EB870051F827204449083890424DD0D5
:103C3000516821F003018B4202D292689042F7D181
:103C4000D068E060A2608460D4604046BDE8F04186
:103C5000FFF7BCBE95683A4FBD4203443FD0D068E1
:103C6000E86043F0010285606260E350B3E7FF075C
:103C7000034407D455F8082CA41A1344A068E2683A
:103C8000C26090602F4A126843F001009342606066
:103C90008C60B6D32C4B40461968FFF721FFB0E784
:103CA00011184968C90744D49168D268CA600344AE
:103CB00043F0010091606060E350A2E7142A17D836
:103CC00002F15C077F0002F15B05A9E7AA104B68CF
:103CD000012505FA02F213434B600246B1E743F0B7
:103CE00001024C610C61E560A5606260E35088E709
:103CF000542A06D81A0B02F16F077F0002F16E05F5
:103D00008EE7B2F5AA7F06D8DA0B02F178077F00BA
:103D100002F1770584E740F25450824206D89A0CAB
:103D200002F17D077F0002F17C0579E7FE277E2501
:103D300076E743F001026260E35062E7048CFF1F04
:103D40000C8CFF1F0C90FF1F6CB5FF1F3C013B014B
:103D50003D013F013E014001420141014301450156
:103D6000440146014801470149014B014A014C0108
:103D70004E014D014F0151015001520154015301B7
:103D8000550157015601580110000F001100130092
:103D900012001400160015001700190018001A0070
:103DA0001C001B001D001E011D011F01210120011F
:103DB00022012401230125012701260128012A01CE
:103DC00029012B01E200E100E300E500E400E60048
:103DD000E800E700E900EB00EA00EC00EE00ED008F
:103DE000EF00F100F000F200F400F300F500F7003E
:103DF000F600F800FA00F900FB00FD00FC00FE00F0
:103E00000001FF0001010301020104010601050197
:103E10000701090108010A010C010B010D010F0145
:103E20000E011001120111011301150114011601F7
:103E30001801170119011B011A011C011F001E00A6
:103E40002000220021002300250024002600280055
:103E5000270029002B002A002C005B005A005C0080
:103E60005E005D005F00610060006200640063004E
:103E700065006700660068006A0069006B006D00FD
:103E80006C006E0070006F007100730072007400AF
:103E9000760075007700790078007A007C007B005E
:103EA0007D007F007E00800082008100830085000D
:103EB000840086008800870089008B008A008C00BF
:103EC0008E008D008F00910090009200940093006E
:103ED00095004C004B004D004F004E00500052002A
:103EE0005100530055005400560058005700590027
:103EF0002E002D002F00310030003200340033003E
:103F000035003700360038003A0039003B000D0319
:103F10000C030E0310030F03110313031203140306
:103F2000160315031703190318031A031C031B03B5
:103F30001D031F031E032003220321032303250364
:103F4000240326032803270329032B032A032C0316
:103F50002E032D032F0331033003320334033303C5
:103F60003503370336033803EF02EE02F002F202A4
:103F7000F102F302F502F402F602F802F702F90286
:103F8000FB02FA02FC02FE02FD02FF020103000333
:103F900002030403030305030703060308030A03DC
:103FA00009030B033D003C003E0040003F00410080
:103FB00043004200440046004500470049004800D5
:103FC0004A00B500B400B600B800B700B900BB00A5
:103FD000BA00BC00BE00BD00BF00C100C000C200EE
:103FE000C400C300C500C700C600C800CA00C9009D
:103FF000CB00CD00CC00CE00D000CF00D100D3004C
:10400000D200D400D600D500D700D900D800DA00FD
:10401000DC00DB00DD00DF00DE00E0009700960042
:1040200098009A0099009B009D009C009E00A000B3
:104030009F00A100A300A200A400A600A500A70065
:10404000A900A800AA00AC00AB00AD00AF00AE0014
:10405000B000B200B100B300010000000200040093
:10406000030005000700060008000A0009000B0015
:104070000D000C000E005A0159015B015D015C014D
:104080005E0160015F01610163016201640166011B
:1040900065016701690168016A016C016B016D01CD
:1040A0006F016E017001720171017301750174017C
:1040B00076012D012C012E0130012F013101330138
:1040C00032013401360135013701390138013A0135
:1040D000FF01FE01000202020102030205020402C6
:1040E00006020802070209020B020A020C02C301BF
:1040F000C201C401C601C501C701C901C801CA0185
:10410000CC01CB01CD01CF01CE01D00195029402AB
:1041100096029802970299029B029A029C029E02C2
:104120009D029F02A102A002A2020E020D020F0236
:1041300011021002120214021302150217021602D3
:1041400018021A0219021B021D021C021E02200282
:104150001F02210223022202240226022502270234
:10416000290228022A022C022B022D022F022E02E3
:104170003002320231023302350234023602380292
:10418000370239023B023A023C023E023D023F0244
:1041900041024002420244024302450247024602F3
:1041A00048024A0249024B024D024C024E025002A2
:1041B0004F02510253025202540256025502570254
:1041C000590258025A025C025B025D025F025E0203
:1041D0006002620261026302650264026602E0023A
:1041E000DF02E102E302E202E402E602E502E702A4
:1041F000E902E802EA02EC02EB02ED02A402A302E9
:10420000A502A702A602A802AA02A902AB02AD0259
:10421000AC02AE02B002AF02B102B302B202B4020B
:10422000B602B502B702B902B802BA02BC02BB02BA
:10423000BD02BF02BE02C002C202C102C302C50269
:10424000C402C602C802C702C902CB02CA02CC021B
:10425000CE02CD02CF02D102D002D202D402D302CA
:10426000D502D702D602D802DA02D902DB02DD0279
:10427000DC02DE026802670269026B026A026C02FB
:104280006E026D026F02710270027202740273029A
:104290007502760375037703790378037A037C0349
:1042A0007B037D037F037E038003820381038303FB
:1042B0003A0339033B033D033C033E0340033F0302
:1042C00041034303420344034603450347034903B1
:1042D00048034A034C034B034D034F034E03500363
:1042E0005203510353035503540356035803570312
:1042F00059035B035A035C035E035D035F036103C1
:104300006003620364036303650367036603680372
:104310006A0369036B036D036C036E0370036F0321
:1043200071037303720374037702760278027A02D0
:1043300079027B027D027C027E0280027F02810282
:104340008302820284028701860188018A01890131
:104350008B018D018C018E0190018F0191019301E0
:1043600092019401960195019701990198019A0192
:104370009C019B019D019F019E01A001A201A10141
:10438000A301A501A401A601A801A701A901AB01F0
:10439000AA01AC01AE01AD01AF01B101B001B201A2
:1043A000B401B301B501B701B601B801BA01B90151
:1043B000BB01BD01BC01BE01C001BF01C10178014B
:1043C000770179017B017A017C017E017D017F010A
:1043D00081018001820184018301850186028502B9
:1043E0008702890288028A028C028B028D028F0268
:1043F0008E029002920291029302D201D101D30166
:10440000D501D401D601D801D701D901DB01DA01E8
:10441000DC01DE01DD01DF01E101E001E201E40197
:10442000E301E501E701E601E801EA01E901EB0149
:10443000ED01EC01EE01F001EF01F101F301F201F8
:10444000F401F601F501F701F901F801FA01FC01A7
:10445000FB01FD014008FE4340A004404408FE4328
:1044600044A004400018FE4300C004403000FE4356
:10447000309004403400FE43349004401C18FE4346
:104480001CC004401018FE4310C004400818FE432E
:1044900008C004400C18FE430CC004400C10FE433E
:1044A0000CB004401010FE4310B004401810FE433E
:1044B00018B004401C10FE431CB004401410FE430E
:1044C00014B004400418FE4304C004400010FE432E
:1044D00000B004400008FE4300A004400408FE436E
:1044E00004A004400C08FE430CA004400808FE434E
:1044F00008A004401418FE4314C004401818FE43DA
:1045000018C004400410FE4304B004400810FE43E9
:1045100008B004401400FE43149004404C08FE43CD
:104520004CA004400420FE4304D004402410FE4369
:1045300024B004402010FE4320B004402810FE4365
:1045400028B004402C10FE432CB004400020FE4351
:1045500000D004404808FE4348A004401000FE4339
:104560001090044000151915000100003487FF1F4A
:1045700012000000000200006087FF1F43000000DF
:1045800000030000BC87FF1F0000000001030904B6
:104590004887FF1F0000000002030904A487FF1FD3
:1045A0000000000003030904C087FF1F0000000093
:1045B000000000000000000000000000D887FF1F7E
:1045C000F8B500BFF8BC08BC9E467047993A000099
:1045D00035040000610B0000C50E0000090F00004B
:0845E0004D0F0000910F0000D7
:0445E800F8B500BF63
:1045EC0000000000B0B5FF1F08000000FFFFFFFF38
:1045FC000A0400001201100102000040C0168304DE
:10460C0075020102030100001803540065006500E7
:10461C006E00730079006400750069006E006F0015
:10462C0009024300020100C0320904000001020229
:10463C0001000524001001052401010104240206D7
:10464C00052406000107058203100040090401003F
:10465C00020A00000007050302400000070584025F
:10466C004000000016035500530042002000530088
:10467C0065007200690061006C000000040309040D
:10468C000C0300000000000000000000000000000F
:10469C00000000000000000000000000C48AFF1FA2
:1046AC002C8BFF1F948BFF1F0000000000000000EC
:1046BC0000000000000000000000000000000000EE
:1046CC0000000000000000000000000000000000DE
:1046DC0000000000000000000000000000000000CE
:1046EC0000000000000000000000000000000000BE
:1046FC0000000000000000000000000000000000AE
:10470C00000000000000000000000000000000009D
:10471C00000000000000000000000000000000008D
:10472C00000000000000000000000000000000007D
:10473C00000000000000000000000000000000006D
:10474C0001000000000000000E33CDAB34126DE60A
:10475C00ECDE05000B000000000000000000000073
:10476C00000000000000000000000000000000003D
:10477C00000000000000000000000000000000002D
:10478C00000000000000000000000000000000001D
:10479C00000000000000000000000000000000000D
:104ACC00D887FF1F0000000000000000048CFF1FAF
:104ADC00048CFF1F0C8CFF1F0C8CFF1F148CFF1FF2
:104AEC00148CFF1F1C8CFF1F1C8CFF1F248CFF1FA2
:104AFC00248CFF1F2C8CFF1F2C8CFF1F348CFF1F52
:104B0C00348CFF1F3C8CFF1F3C8CFF1F448CFF1F01
:104B1C00448CFF1F4C8CFF1F4C8CFF1F548CFF1FB1
:104B2C00548CFF1F5C8CFF1F5C8CFF1F648CFF1F61
:104B3C00648CFF1F6C8CFF1F6C8CFF1F748CFF1F11
:104B4C00748CFF1F7C8CFF1F7C8CFF1F848CFF1FC1
:104B5C00848CFF1F8C8CFF1F8C8CFF1F948CFF1F71
:104B6C00948CFF1F9C8CFF1F9C8CFF1FA48CFF1F21
:104B7C00A48CFF1FAC8CFF1FAC8CFF1FB48CFF1FD1
:104B8C00B48CFF1FBC8CFF1FBC8CFF1FC48CFF1F81
:104B9C00C48CFF1FCC8CFF1FCC8CFF1FD48CFF1F31
:104BAC00D48CFF1FDC8CFF1FDC8CFF1FE48CFF1FE1
:104BBC00E48CFF1FEC8CFF1FEC8CFF1FF48CFF1F91
:104BCC00F48CFF1FFC8CFF1FFC8CFF1F048DFF1F40
:104BDC00048DFF1F0C8DFF1F0C8DFF1F148DFF1FED
:104BEC00148DFF1F1C8DFF1F1C8DFF1F248DFF1F9D
:104BFC00248DFF1F2C8DFF1F2C8DFF1F348DFF1F4D
:104C0C00348DFF1F3C8DFF1F3C8DFF1F448DFF1FFC
:104C1C00448DFF1F4C8DFF1F4C8DFF1F548DFF1FAC
:104C2C00548DFF1F5C8DFF1F5C8DFF1F648DFF1F5C
:104C3C00648DFF1F6C8DFF1F6C8DFF1F748DFF1F0C
:104C4C00748DFF1F7C8DFF1F7C8DFF1F848DFF1FBC
:104C5C00848DFF1F8C8DFF1F8C8DFF1F948DFF1F6C
:104C6C00948DFF1F9C8DFF1F9C8DFF1FA48DFF1F1C
:104C7C00A48DFF1FAC8DFF1FAC8DFF1FB48DFF1FCC
:104C8C00B48DFF1FBC8DFF1FBC8DFF1FC48DFF1F7C
:104C9C00C48DFF1FCC8DFF1FCC8DFF1FD48DFF1F2C
:104CAC00D48DFF1FDC8DFF1FDC8DFF1FE48DFF1FDC
:104CBC00E48DFF1FEC8DFF1FEC8DFF1FF48DFF1F8C
:104CCC00F48DFF1FFC8DFF1FFC8DFF1F048EFF1F3B
:104CDC00048EFF1F0C8EFF1F0C8EFF1F148EFF1FE8
:104CEC00148EFF1F1C8EFF1F1C8EFF1F248EFF1F98
:104CFC00248EFF1F2C8EFF1F2C8EFF1F348EFF1F48
:104D0C00348EFF1F3C8EFF1F3C8EFF1F448EFF1FF7
:104D1C00448EFF1F4C8EFF1F4C8EFF1F548EFF1FA7
:104D2C00548EFF1F5C8EFF1F5C8EFF1F648EFF1F57
:104D3C00648EFF1F6C8EFF1F6C8EFF1F748EFF1F07
:104D4C00748EFF1F7C8EFF1F7C8EFF1F848EFF1FB7
:104D5C00848EFF1F8C8EFF1F8C8EFF1F948EFF1F67
:104D6C00948EFF1F9C8EFF1F9C8EFF1FA48EFF1F17
:104D7C00A48EFF1FAC8EFF1FAC8EFF1FB48EFF1FC7
:104D8C00B48EFF1FBC8EFF1FBC8EFF1FC48EFF1F77
:104D9C00C48EFF1FCC8EFF1FCC8EFF1FD48EFF1F27
:104DAC00D48EFF1FDC8EFF1FDC8EFF1FE48EFF1FD7
:104DBC00E48EFF1FEC8EFF1FEC8EFF1FF48EFF1F87
:104DCC00F48EFF1FFC8EFF1FFC8EFF1F048FFF1F36
:104DDC00048FFF1F0C8FFF1F0C8FFF1F148FFF1FE3
:104DEC00148FFF1F1C8FFF1F1C8FFF1F248FFF1F93
:104DFC00248FFF1F2C8FFF1F2C8FFF1F348FFF1F43
:104E0C00348FFF1F3C8FFF1F3C8FFF1F448FFF1FF2
:104E1C00448FFF1F4C8FFF1F4C8FFF1F548FFF1FA2
:104E2C00548FFF1F5C8FFF1F5C8FFF1F648FFF1F52
:104E3C00648FFF1F6C8FFF1F6C8FFF1F748FFF1F02
:104E4C00748FFF1F7C8FFF1F7C8FFF1F848FFF1FB2
:104E5C00848FFF1F8C8FFF1F8C8FFF1F948FFF1F62
:104E6C00948FFF1F9C8FFF1F9C8FFF1FA48FFF1F12
:104E7C00A48FFF1FAC8FFF1FAC8FFF1FB48FFF1FC2
:104E8C00B48FFF1FBC8FFF1FBC8FFF1FC48FFF1F72
:104E9C00C48FFF1FCC8FFF1FCC8FFF1FD48FFF1F22
:104EAC00D48FFF1FDC8FFF1FDC8FFF1FE48FFF1FD2
:104EBC00E48FFF1FEC8FFF1FEC8FFF1FF48FFF1F82
:104ECC00F48FFF1FFC8FFF1FFC8FFF1F00000200E1
:044EDC00FFFFFFFFD6
:00000001FF
